:020000040800F2
:100000003019002045010008BD2A0008D91C00084D
:10001000B92A0008891400084B3A000800000000C3
:10002000000000000000000000000000912E000809
:100030007D15000800000000452B0008AD2F0008CA
:100040005F0100085F0100085F0100085F01000810
:100050005F0100085F01000881150008F91500081C
:100060005F0100085F0100085F0100085F010008F0
:100070005F0100085F0100085F0100085F010008E0
:100080005F0100085F0100085F0100085F010008D0
:100090005F0100085F0100085F0100085F010008C0
:1000A0005F0100085F0100085F0100085F010008B0
:1000B000A5300008593100082D3200085F01000802
:1000C0005F0100085F0100085F0100085F01000890
:1000D0005F0100085F010008713600085F01000839
:1000E000B51500085F0100085F0100085F01000806
:1000F0005F0100085F0100085F0100085F01000860
:100100005F0100085F0100085F0100085F0100084F
:100110005F0100085F0100085F0100085F0100083F
:100120005F0100085F0100085F0100085F0100082F
:10013000DFF80CD000F0E8FB0048004789650008B4
:10014000301900200648804706480047FEE7FEE7D2
:10015000FEE7FEE7FEE7FEE7FEE7FEE7FEE7FEE777
:10016000B12F00083101000840EA01039B0703D0CA
:1001700009E008C9121F08C0042AFAD203E011F8E6
:10018000013B00F8013B521EF9D27047D2B201E0A8
:1001900000F8012B491EFBD270470022F6E710B58C
:1001A00013460A4604461946FFF7F0FF204610BDE5
:1001B00030B505462A460B4612F8010B13F8014BE1
:1001C00008B1A042F8D01CB1002802D06D1CF1E7A4
:1001D000284630BDCAB2401E10F8011F8A4202D024
:1001E0000029F9D100207047421C10F8011B00299A
:1001F000FBD1801A704730B504460020034600E06A
:100200005B1C934203D2E05CCD5C401BF8D030BD58
:1002100010B5044600E0401C0378002BFBD100E041
:10022000401C521E04D311F8013B0370002BF7D180
:1002300000210170204610BD034611F8012B00F883
:10024000012B002AF9D11846704770B5064603F015
:1002500089FC046805460A220021304600F041F975
:100260002C6070BD2DE9FE4F81EA030404F00044C8
:1002700021F0004100944FF0000B23F0004350EABE
:1002800001045ED052EA03045BD0C3F30A54C1F305
:100290000A552C44A4F2F3340194A0FB0254C1F398
:1002A000130141F48011C3F3130343F4801301FBE2
:1002B000024400FB034E840A970A44EA815447EA49
:1002C0008357A4FB076802958D0A05FB07854FEA53
:1002D000932C04FB0C542705029D4FEA065847EA6D
:1002E0001637B5EB08056EEB070C870E920E47EA42
:1002F000811742EA8312A7FB0201B6EB0B0164EB04
:1003000000042B0D43EA0C335E1844EB1C50DA4614
:100310005146E7FB0201C5F313044FEA0B3343EAEE
:1003200014534FEA0432019C43EA0603A4F10C047F
:100330000294009CCDE900B400F051F903B0BDE88F
:10034000F08F00200146F9E796230022114600F0C5
:1003500009B90EB5C10F80EAE0700844CA07002150
:1003600040F233438DE80E000A460B4600F037F9A1
:1003700003B000BD00F0004220F00040C10DC0F30A
:10038000160040F400007F2901DA0020704796290A
:1003900003DCC1F19601C84001E096398840002A8B
:1003A000F4D04042704720F00040C10DC0F3160069
:1003B00040F400007F2901DA00207047962903DC11
:1003C000C1F19601C840704796398840704700F0E7
:1003D000004230F000400AD0C10D01F56071C0F359
:1003E000160042EA0151C20840071143704700203D
:1003F0000146704701F0004330B421F0004150EA5B
:10040000010206D00A0DA2F56072C1F31301002AA1
:1004100002DC30BC00207047440F44EAC104C10034
:10042000E01830BC00EBC25000F093B8002801DBAC
:10043000C0F10040002901DBC1F100418142704759
:10044000002801DBC0F10040002901DBC1F10041BF
:100450008842704730B50B46014600202022012417
:1004600009E021FA02F59D4205D303FA02F5491B82
:1004700004FA02F52844151EA2F10102F1DC30BD98
:100480002DE9F05F0546002092469B4688460646C9
:10049000814640241BE0284641464746224600F05C
:1004A00054FA53465A46C01A914110D31146184681
:1004B000224600F03BFA2D1A67EB01084F46224610
:1004C0000120002100F032FA17EB00094E41201EF6
:1004D000A4F10104DFDC484631462A464346BDE824
:1004E000F09F2DE9F04791460F46804604460026CE
:1004F00014F8015B2DB100F04BFA0068405DC007B5
:10050000F6D12B2D02D02D2D18D0641E4A46394627
:10051000204600F041FA27B13968A14201D1C7F85D
:10052000008071054FF002040BD54042002803DD26
:1005300003F018FB0460A007BDE8F08746F480666E
:10054000E4E70028F8DA03F00DFB04606FF00040E8
:10055000F2E70029A8BF7047401C490008BF20F0FF
:100560000100704710B4B0FA80FC00FA0CF050EAB9
:10057000010404BF10BC704749B1CCF1200421FA3A
:1005800004F411FA0CF118BF012121430843A3EB35
:100590000C01CB1D4FEA00614FEA102042BF002042
:1005A00010BC704700EBC35010440029A4BF10BC1E
:1005B0007047401C490008BF20F0010010BC704784
:1005C00010B5141E73F1000408DA401C41F100015B
:1005D00092185B411A4301D120F0010010BD2DE9B2
:1005E000F04D92469B4611B1B1FA81F202E0B0FAA9
:1005F00080F22032904600F099F904460F4640EA16
:100600000A0041EA0B0153465A46084313D01146EB
:1006100053EA010019D0C8F14002504600F095F9A4
:1006200005460E4650465946424600F07FF90843BB
:1006300005D0012004E020463946BDE8F08D0020B9
:10064000054346EAE0762C4337430A986305E40AFB
:10065000A0EB08000022FD0A44EA47540A3002D504
:1006600000200146E9E7010510196941DDE9084567
:1006700000196941BDE8F04DA2E72DE9FE4F804623
:1006800081EA0300C00F0C46009021F0004123F0E6
:100690000045B8EB0200A94105D2404621469046EC
:1006A0001C460B46024623F00040104347D0270D5E
:1006B000C7F30A00C3F30A510290401A0190402880
:1006C0006BDAC3F3130040F4801B0098924620B10C
:1006D0000023D2EB030A63EB0B0B01985946C0F1E0
:1006E0004002504600F022F906460D465046594653
:1006F000019A00F03AF910EB08006141002487EA02
:10070000115284EAE7731A4340D0009A62B3019A07
:10071000012A4FEA075215DC001B61EB02014FF082
:10072000004202EA0752CDE90042001C41F5801167
:1007300032462B46FFF753FF03B0BDE8F08F40462B
:100740002146F9E7001B61EB0201001C41F5801313
:1007500000185B412018A2F5001747EB030140EA9F
:10076000D570B6196D4111E06D084FEA360645EABD
:10077000C0754FEA0752001B61EB0201001C41F5F6
:10078000801149084FEA30000019514132462B468A
:1007900003B0BDE8F04FFFF713BF009801224000FF
:1007A0000023D0EB020263EBE073009821464FEA8E
:1007B000E074B8EB000061EB0401E9E783F000436B
:1007C0005BE781F0004158E72DE9F04D81EA030431
:1007D00004F0004B21F0004514464FF0000A23F0CE
:1007E000004150EA050220D054EA01021DD0C5F3B1
:1007F0000A570246C5F31303C1F31300C1F30A56A7
:1008000040F4801543F48013A7EB0608101BD6466E
:1008100008F2FD3873EB050002D308F1010801E08E
:1008200092185B41B8F1000F03DA00200146BDE8E1
:10083000F08D00204FF48011064684460EE0171B11
:1008400073EB050705D3121B63EB050306434CEA64
:10085000010C49084FEA300092185B4150EA010749
:10086000EDD152EA030012D082EA040083EA0501C6
:10087000084305D0101BAB4106D20122002306E03D
:1008800000224FF0004302E06FF0010253101AEB18
:1008900006004CEB085110EB0A0041EB0B01BDE8E0
:1008A000F04DFFF78DBEC1F30A52C1F3130140F2C0
:1008B000FF3341F480119A4202DA0020014670476A
:1008C00040F233439A42A2F2334202DC524200F039
:1008D0003CB800F02BB8000030B5041E71F10004E4
:1008E00004DB4FF00044404264EB0101141E73F13D
:1008F000000405DB1C464FF00043524263EB040347
:10090000994208BF904230BD064C074D06E0E068B2
:1009100040F0010394E8070098471034AC42F6D346
:10092000FFF70AFCE881000808820008202A04DB9F
:10093000203A00FA02F1002070479140C2F12003F2
:1009400020FA03F3194390407047202A04DB203A31
:1009500021FA02F00021704721FA02F3D040C2F1DF
:1009600020029140084319467047202A06DBCB1726
:10097000203A41FA02F043EAE07306E041FA02F35A
:10098000D040C2F120029140084319467047000050
:1009900000487047C88000082DE9F05F8246007863
:1009A000002715468B460AF10104B946302801D0CC
:1009B0009DB113E014F8010B0127782803D05828C3
:1009C00001D045B10AE00DB1102D07D10027102547
:1009D00014F8010B02E0082500E00A250026B046C5
:1009E0000EE005FB080005FB06F1012701EB1046B0
:1009F0001FFA80F8B6F5803F00D3B94614F8010B12
:100A0000294600F018F80028EBDABBF1000F05D0FA
:100A10000FB1641E00E05446CBF80040B9F1000F5E
:100A200006D003F09FF802210160C81EBDE8F09FC8
:100A300048EA0640FAE73A2800D2303820F020028F
:100A4000412A01D3A2F13700884201D34FF0FF3091
:100A5000704770B58C1810F8015B15F0070301D1D1
:100A600010F8013B2A1106D110F8012B03E010F811
:100A7000016B01F8016B5B1EF9D12B0705D4002334
:100A8000521E0DD401F8013BFAE710F8013BCB1AD6
:100A9000921C03E013F8015B01F8015B521EF9D5CB
:100AA000A142D8D3002070BD2DE9FC4781463220F9
:100AB00000F0C4F88DF80000332000F0BFF88DF886
:100AC0000100012005F03AF9342000F0B7F88DF864
:100AD0000200352000F0B2F88DF80300012005F087
:100AE0002DF9362000F0AAF88DF80400372000F028
:100AF000A5F88DF80500012005F020F99DF800000B
:100B00009DF8011000EB012004B2002C01DA6042D4
:100B100004B22046FFF71DFC07464FF033321E4B50
:100B2000FFF7A0FB0546FFF765FCC9F800009DF83C
:100B300002009DF8031000EB012004B2002C01DA42
:100B4000604204B22046FFF704FC05464FF0333202
:100B5000114BFFF787FB0746FFF74CFCC9F8040071
:100B60009DF804009DF8051000EB012004B2002C54
:100B700001DA604204B22046FFF7EBFB05464FF076
:100B80003332054BFFF76EFB0746FFF733FCC9F81E
:100B90000800BDE8FC87000033330F4010B502F0B9
:100BA0001DF900211E2000F073F800211F2000F025
:100BB0006FF80021202000F06BF80021212000F0C8
:100BC00067F80021222000F063F80021232000F0C4
:100BD0005FF80121242000F05BF80121252000F0BE
:100BE00057F82B21262000F053F80021272000F091
:100BF0004FF80921282000F04BF8FF21292000F0B0
:100C000047F880212A2000F043F80F212C2000F023
:100C10003FF808212D2000F03BF880212E2000F025
:100C200037F800212F2000F033F80B21312000F09D
:100C30002FF80021382000F02BF810BD10B5044625
:100C40001021114801F00DF844F08000002242EA22
:100C500000210E4802F0A2F800BF02210B4802F06A
:100C600091F80028F9D000BF0121084802F08AF865
:100C70000028F9D01021044800F0F5FF034802F0E5
:100C80008AF8C0B210BD00000010014000300140E1
:100C900070B504460D4610210E4800F0E2FF45EA0B
:100CA00004210D4802F07AF800BF02210A4802F040
:100CB00069F80028F9D000BF0121074802F062F866
:100CC0000028F9D01021034800F0CDFF024802F0BF
:100CD00062F870BD001001400030014030B587B0AF
:100CE00039A33DA248A14DA002F018FF58480021A9
:100CF00002910391CDE9041000913C2332A20191AD
:100D000035A141A001F058F9002858D150488088F9
:100D100082B24F480168042005F0EAFE4FF4FA6001
:100D200005F00CF80CE0042005F097FA0446224682
:100D30004849042005F05AFD012004F0FFFF03E0BC
:100D4000444800782028EED100BF4248007820288F
:100D500002D10120404908703E4D002D2BD028467D
:100D600001F016FE022826D1284601F0FAFC0628DA
:100D70001CD2DFE800F003070B0F131737A002F0B7
:100D8000CDFE17E03AA002F0C9FE13E03FA002F04A
:100D9000C5FE0FE046A002F0C1FE0BE04CA002F041
:100DA000BDFE07E053A002F0B9FE03E05CA002F034
:100DB000B5FE00BF00BF264801F066F802E05FA064
:100DC00002F0ACFE07B030BD446576696365436CE4
:100DD00069656E74303035006A394E694775456112
:100DE00049754B50566578702F4D557757416C5A61
:100DF0004C446F78315951352B65715836447575AF
:100E0000502F6B3D00000000757466756574742F7B
:100E10006465766963655F3030310000B0D9B6C86B
:100E2000CCECB9A45F4465764C696E6B0D0A5052E8
:100E30004F49443A2025732C09415549463A20250B
:100E4000732C0944455649443A25730D0A000000A5
:100E5000F0090020300900204C0000205469707314
:100E60003A09C1ACBDD3B3C9B9A60D0A0000000050
:100E70005741524E3A09C1ACBDD3CAA7B0DCA3BAA0
:100E8000D0ADD2E9B4EDCEF30D0A00005741524E79
:100E90003A09C1ACBDD3CAA7B0DCA3BAB7C7B7A8DB
:100EA000B5C4636C69656E7469640D0A0000000066
:100EB0005741524E3A09C1ACBDD3CAA7B0DCA3BA60
:100EC000B7FECEF1C6F7CAA7B0DC0D0A00000000DD
:100ED0005741524E3A09C1ACBDD3CAA7B0DCA3BA40
:100EE000D3C3BBA7C3FBBBF2C3DCC2EBB4EDCEF3F1
:100EF0000D0A00005741524E3A09C1ACBDD3CAA7F2
:100F0000B0DCA3BAB7C7B7A8C1B4BDD328B1C8C8AD
:100F1000E7746F6B656EB7C7B7A8290D0A000000AC
:100F20004552523A09C1ACBDD3CAA7B0DCA3BACE70
:100F3000B4D6AAB4EDCEF30D0A0000005741524ECC
:100F40003A094D5154545F5061636B6574436F6E41
:100F50006E656374204661696C65640D0A0000006B
:100F60007FB504460D4616460F4801210022009227
:100F70003346CDE9012103902A4621460A2001F09B
:100F800069F980B90848808882B20748016804205E
:100F900005F0AEFD05A002F0C1FD034800F074FFAE
:100FA000642004F0CBFE7FBD6C040020B7A2CBCD43
:100FB000B3C9B9A60D0A00002DE9F0438BB007466E
:100FC00000200790089009900A900690059000264E
:100FD0000490002500248046384601F0D9FC0646DE
:100FE000F01E0D2870D2DFE800F026707891ACCCAE
:100FF000B4CCC0CCCCCC070006AA05A9384601F079
:101000006BFB0546B5B977A0DDE9051202F086FD58
:1010100007AADDE9050100F089FF58B977A002F0C1
:101020007DFD089882B20420079905F061FD07A8AC
:1010300000F02AFFA8E0774804AB06AA05A90090B3
:10104000384601F09DFB0546002D3CD172A0DDE93C
:10105000051202F063FD0698FFF7C6F881464A467E
:1010600074480699FFF780F89DF81000012802D017
:10107000022826D112E007A96648008801F085F908
:1010800058B96DA002F04AFD089882B20420079971
:1010900005F02EFD07A800F0F7FE13E007A95D4854
:1010A000008801F0BAF958B969A002F037FD089834
:1010B00082B20420079905F01BFD07A800F0E4FEAA
:1010C00000E000BF00BF5FE05BE0384601F020FCBD
:1010D00010B965A002F022FD56E0384601F036FC5A
:1010E00098B969A002F01AFD07A90A2001F0B9F920
:1010F00058B96BA002F012FD089882B2042007993B
:1011000005F0F6FC07A800F0BFFE3DE0414801886D
:10111000384601F02AFC98B967A002F0FFFC07A945
:101120000A2001F056F958B969A002F0F7FC0898B6
:1011300082B20420079905F0DBFC07A800F0A4FEAA
:1011400022E0384601F0F3FB10B968A002F0E6FC9B
:101150001AE0384601F056FC18B96AA002F0DEFC2D
:1011600002E06FA002F0DAFC0EE0384601F064FC09
:1011700018B972A002F0D2FC02E077A002F0CEFC17
:1011800002E04FF0FF3500BF00BF681C10B90BB084
:10119000BDE8F0837D210698FFF71CF80446A4B152
:1011A000681C90B1641C06E014F8012B404608F15D
:1011B000010801A90A542078302802DB2078392858
:1011C000F2DD01A8FFF741F880460F2E01D0032E73
:1011D00005D1059804F0E8FF069804F0E5FF00BF8C
:1011E000D5E70000636D6469643A2025732C207292
:1011F00065713A2025730D0A000000005469707370
:101200003A0953656E6420436D64526573700D0A2C
:1012100000000000AC020020746F7069633A202562
:10122000730D0A7061796C6F61643A2025730D0A41
:1012300000000000B0090020546970733A0953653A
:101240006E64205075626C69736841636B0D0A00AF
:10125000546970733A0953656E64205075626C6905
:1012600073685265630D0A00546970733A094D51F1
:101270005454205075626C6973682053656E642005
:101280004F4B0D0A00000000546970733A09526513
:1012900076205075626C6973685265630D0A0000B0
:1012A000546970733A0953656E64205075626C69B5
:1012B000736852656C0D0A00546970733A0952657F
:1012C00076205075626C69736852656C0D0A000077
:1012D000546970733A0953656E64205075626C6985
:1012E0007368436F6D700D0A0000000054697073DD
:1012F0003A09526576205075626C697368436F6D68
:10130000700D0A00546970733A094D5154542053BA
:101310007562736372696265204F4B0D0A000000AD
:10132000546970733A094D51545420537562736374
:1013300072696265204572720D0A0000546970730B
:101340003A094D51545420556E5375627363726956
:101350006265204F4B0D0A00546970733A094D5174
:10136000545420556E5375627363726962652045EB
:1013700072720D0A00000000F0B585B004460D46FB
:1013800000260020019002900390049006E054F89B
:10139000261021A002F0C2FB701CC6B2AE42F6DBE2
:1013A00001A82B46224600210090142001F07DF870
:1013B00040B9029882B20420019905F099FB01A876
:1013C00000F062FD642004F0B9FC042004F045FF45
:1013D00007463A461649042005F008FA14480079F1
:1013E00030B1012808D002280AD0802810D10BE0A3
:1013F00010A002F093FB0BE014A002F08FFB07E0BB
:1014000018A002F08BFB03E01CA002F087FB00BFDA
:1014100000BF05B0F0BD000053756273637269626E
:101420006520546F7069633A2025730D0A0000002F
:1014300030090020B6A9D4C4C8B7C8CFA3AC205186
:101440006F53B5C8BCB6300D0A000000B6A9D4C4AD
:10145000C8B7C8CFA3AC20516F53B5C8BCB6310DC7
:101460000A000000B6A9D4C4C8B7C8CFA3AC2051A5
:101470006F53B5C8BCB632200D0A0000B6A9D4C45B
:10148000CAA7B0DC200D0A0000BFFEE72DE9F0413D
:1014900004464FF40071224800F0E3FB142004F0EE
:1014A0004DFC4FF400711E4800F0DDFB282004F0D5
:1014B00063FC4FF400711A4800F0CAFB68BB00BF20
:1014C0004FF40071164800F0C3FB0028F8D000BFAD
:1014D0004FF40071124800F0BBFB0028F8D100F077
:1014E00021F8207000F01EF8064600F01BF860702E
:1014F00000F018F8074600F015F805464FF40071A3
:10150000074800F0B0FB2078617808443044384444
:10151000A84202D10120BDE8F0810020FBE70000D5
:101520000010014070B50024002521E000BF4FF4F9
:101530000071114800F08CFB0028F8D0212004F045
:101540001BFC4FF400710C4800F082FB60B10120DD
:1015500000EB4400C4B200BF4FF40071064800F035
:1015600077FB0028F8D101E06006040E681CC5B2C4
:10157000082DDBDB204670BD0010014070470000E5
:1015800010B5012000F05EF860B1012000F04EF8C7
:101590000548006800F0010004490860084600782A
:1015A0000349087010BD0000080801401000002029
:1015B000D100002010B54FF4806000F043F878B1FE
:1015C0004FF4806000F032F84FF48061054800F07D
:1015D0003FFB054908700846017804A002F09EFA16
:1015E00010BD0000000801401D000020646F6F72F4
:1015F000203D2025640D0A0010B5022000F022F8DD
:1016000060B1022000F012F80548006800F0020006
:1016100004490860084600780349087010BD0000BE
:10162000080801400C000020D0000020014908609B
:10163000704700001404014010B500F061F800F09C
:1016400097F810BD014600200022074B1B6803EAF3
:101650000102054B14331B680B4013B10AB1012082
:1016600000E00020704700000004014000212349F1
:101670008279002A3AD00A46126803689A430B46D8
:101680001A600A1D126803689A430B1D1A600279DA
:1016900011440A6803681A430A60184A083212683B
:1016A00003689A43154B08331A601A1D12680368C1
:1016B0009A43124B0C331A604279102A0ED11A1F2A
:1016C000126803681A430D4B08331A601A1D12681A
:1016D00003681A43094B0C331A600DE0074942793D
:1016E00011440A6803681A430A6005E0027911444C
:1016F0000A6803689A430A607047000000040140CA
:101700001FB50121052001F077FA4FF4E06001F0E8
:101710000FFA06208DF80C0000208DF80D00062031
:101720008DF80E0001208DF80F0003A801F0C8F914
:101730000120ADF8080028208DF80B0002A90B4805
:1017400000F0B2F90021084600F08EF90120009067
:1017500000208DF8040010208DF8050001208DF880
:1017600006006846FFF782FF1FBD00000008014029
:101770001FB50121052001F03FFA4FF4E06001F0B0
:10178000D7F907208DF80C0000208DF80D000720F8
:101790008DF80E0001208DF80F0003A801F090F9DC
:1017A0000220ADF8080028208DF80B0002A90B4894
:1017B00000F07AF90121002000F056F90220009093
:1017C00000208DF8040010208DF8050001208DF810
:1017D00006006846FFF74AFF1FBD000000080140F1
:1017E00008B501213D2001F007FA0121994800F0D8
:1017F000E7F94020ADF8000001208DF802004820F4
:101800008DF803006946944800F04EF98020ADF849
:10181000000001208DF8020010208DF803006946B9
:101820008D4800F041F94FF40070ADF8000003203E
:101830008DF8020014208DF803006946864800F0F8
:1018400033F94FF40071844800F00DFA4FF48070C2
:10185000ADF8000001208DF8020010208DF8030083
:1018600069467E4800F020F94FF480717B4800F013
:10187000FAF94FF40070ADF8000001208DF8020075
:1018800010208DF803006946744800F00DF94FF4FC
:101890000071724800F0E7F91020ADF80000012057
:1018A0008DF8020010208DF8030069466B4800F0A7
:1018B000FBF81021694800F0D6F92020ADF80000AF
:1018C00001208DF8020010208DF80300694663485E
:1018D00000F0EAF82021614800F0C5F94FF400500B
:1018E000ADF8000001208DF8020010208DF80300F3
:1018F0006946594800F0D8F84FF40051564800F0B6
:10190000B2F94FF48040ADF8000001208DF80200DC
:1019100010208DF8030069464F4800F0C5F84FF4D9
:1019200080414D4800F09FF90420ADF800000120EF
:101930008DF8020010208DF803006946484800F039
:10194000B3F80421464800F08EF90820ADF80000F5
:1019500001208DF8020010208DF8030069463F48F1
:1019600000F0A2F808213D4800F07DF94FF4006036
:10197000ADF8000001208DF8020010208DF8030062
:101980006946354800F090F84FF40061324800F0A5
:101990006AF94FF48050ADF8000001208DF8020084
:1019A00010208DF8030069462B4800F07DF84FF4B5
:1019B0008051294800F057F94FF40040ADF800007D
:1019C00001208DF8020010208DF80300694625489B
:1019D00000F06AF84FF40041224800F044F94FF457
:1019E0008060ADF8000001208DF8020010208DF815
:1019F00003006946184800F057F84FF48061164814
:101A000000F031F94FF40060ADF8000001208DF8CE
:101A1000020010208DF803006946124800F044F8D7
:101A20004FF400610F4800F01EF94FF48050ADF8FC
:101A3000000001208DF8020010208DF80300694697
:101A4000084800F031F84FF48051064800F00BF9D7
:101A500008BD00000002300000100140000C0140F1
:101A6000001401400008014030B500228B071C0F14
:101A70000F2303FA04F20B4B8C1053F824309343DA
:101A8000084C8D1044F8253023468C1053F8243030
:101A90008C07240F00FA04F42343024C8D1044F801
:101AA000253030BD080001402DE9F04102460025F7
:101AB0000026002000230024002791F803C00CF02A
:101AC0000F0591F803C00CF0100CBCF1000F03D00F
:101AD00091F802C04CEA050591F800C0BCF1000F76
:101AE00031D0146800202BE04FF0010C0CFA00F309
:101AF000B1F800C00CEA03069E4220D183004FF0EB
:101B00000F0C0CFA03F7BC4305FA03FC4CEA04047F
:101B100091F803C0BCF1280F06D14FF0010C0CFA6C
:101B200000FCC2F814C00AE091F803C0BCF1480FF1
:101B300005D14FF0010C0CFA00FCC2F810C0401C9B
:101B40000828D1D31460B1F800C0BCF1FF0F34DD18
:101B5000546800202EE000F1080C4FF0010808FA4C
:101B60000CF3B1F800C00CEA03069E4221D18300B9
:101B70004FF00F0C0CFA03F7BC4305FA03FC4CEAD8
:101B8000040491F803C0BCF1280F05D100F1080C42
:101B900008FA0CF8C2F8148091F803C0BCF1480FA1
:101BA00007D100F1080C4FF0010808FA0CF8C2F850
:101BB0001080401C0828CED35460BDE8F08100009E
:101BC000F0B50A46002300240021002500F000465D
:101BD000B6F1004F02D11D4EF16901E01B4E716854
:101BE000C0F3034583B200F44016B6F5401F08D198
:101BF00021F07061154E766826F07066134F7E6096
:101C000012E000F48016B6F5801F06D1032606FA0E
:101C100005F4A14341F0706106E0460D360103FA78
:101C200006F6B14341F0706122B1460D360103FA68
:101C300006F6314300F00046B6F1004F02D1034EE4
:101C4000F16101E0014E7160F0BD00000000014053
:101C50000246002093680B400BB1012000E00020F9
:101C6000704741617047016170474FF6FF71018015
:101C7000022181700421C1707047000010B50F4827
:101C800000680F4908600D48001D006848600B4857
:101C9000083000688860084600684008496800EB22
:101CA00091000749896800EBD100064908600846A1
:101CB000016805A001F032FF10BD0000E8F7FF1F2A
:101CC0005404002048000020CEA8D2BB6964A3BA07
:101CD00025640D0A0000000000BFFEE710B50020DB
:101CE00001F0B6FE10BD10B5012001F0B1FE10BD2F
:101CF00070B504460025FFF7F1FFC4F3074000F07C
:101D000010F8C4F3072000F00CF804F0F80000F01D
:101D100008F8002000F005F80546FFF7E4FF284624
:101D200070BD10B50446204601F004F810BD70B532
:101D300004460D46FFF7D2FFC4F30740FFF7F1FF5B
:101D4000C4F30720FFF7EDFF04F0F801091DC8B246
:101D5000FFF7E7FF2846FFF7E4FFFFF7C4FF70BD7A
:101D60004CF6CC400149086070470000003000404C
:101D700010B500F013F810BD70B505460C4645F2DD
:101D8000555000F01FF8284600F010F8204600F0EB
:101D900013F800F003F8FFF7E3FF70BD4AF6AA203E
:101DA0000149086070470000003000400149486068
:101DB0007047000000300040014988607047000013
:101DC00000300040014908607047000000300040CA
:101DD00010B54FF47A7003F0B1FF40F6A66104200D
:101DE000FFF7CAFF01F034F901F076F901F08AF942
:101DF00001F0DCF901F0F0F901F06AFAFFF7F0FC0C
:101E000004F066FB01F026FD01F034FE03F0D8FC7F
:101E1000FEF7C4FEFFF710FC01F0E2FB00F094FEB9
:101E2000FFF72CFF00F072FF06F022F805F050FEDD
:101E300005F086FC0B490C4805F07EFF0BA001F075
:101E40006DFE0121084600F0B7FE0121880701F070
:101E50005AFA0121042000F0AFFE0121094801F0E7
:101E600052FA10BD310100202901002057353530CC
:101E70003020496E697420436F6D706C6574652104
:101E80000D0A00000008004010B50446207B012820
:101E900002D1206804F088F9002020606060A06012
:101EA000207310BD0246002301230DE002F07F00E5
:101EB0000870D2092AB1087840F080000870491CE7
:101EC00001E0184670475B1C042BEFDD4FF0FF303C
:101ED000F8E770B504460E460025206898B9012041
:101EE0002073304604F05AFB20602068E0B10020E7
:101EF0006060A66003E00020216848556D1CA06862
:101F0000A842F8D810E00220207303E000202168E6
:101F100048556D1CA068A842F8D800206060A068F1
:101F2000B04201D20020206070BD00002DE9FF5FAB
:101F300007460D4690463846FEF756F986B22846C3
:101F4000FEF752F91FFA80FA4FF00009B01D04F0B5
:101F500025FB04461CB9012004B0BDE8F09FB11D6B
:101F60002046FEF71AF912A0016821608088A0803F
:101F7000324639462046FEF74BF92846FEF734F93B
:101F800083460120002100915B462A46CDE90208E4
:101F9000019121460A2000F05DF910B94FF00009C7
:101FA00001E04FF00109204604F0FEF84846D3E76F
:101FB00024637273702F00002DE9FF4F83B08246B7
:101FC0008B469146159C0025002002900F2701901A
:101FD0004846FEF709F98046B9F1000F03D1012008
:101FE00007B0BDE8F08F08F10200384487B21098BE
:101FF00008B145F00205129878B145F00405129831
:10200000FEF7F2F8C0B202901398FEF7EDF8014621
:102010000298001D0844384487B2119820B1012865
:1020200004D0022808D104E000BF07E045F00C0509
:1020300004E045F0140501E00220D1E700BF149848
:1020400008B145F02405BAF1000F02D0BBF1000F32
:1020500001D10320C4E745F0C0055046FEF7C4F89F
:1020600006465846FEF7C0F83044001D384487B293
:1020700039462046FFF72DFF206808B90420AFE756
:1020800039462068FEF789F810216268501C6060AC
:1020900020688154D4E90023D118781FFFF702FF8C
:1020A00001900198002804DA2046FFF7EDFE052094
:1020B00096E7616801980844606000216268501CDE
:1020C00060602068815404216268501C6060206850
:1020D00081544D216268501C6060206881545121F8
:1020E0006268501C60602068815454216268501CF2
:1020F0006060206881546268501C60602068815470
:1021000004216268501C6060206881546168481C2A
:102110006060206845540698010A6268501C60603F
:10212000206881540698C1B26268501C60602068C3
:102130008154C8F307216268501C60602068815494
:102140006268501C6060206800F80280D4E90012C8
:10215000881842464946FEF75BF860684044606074
:1021600005F00400B8B30026139808B938A01390FE
:102170001298FEF739F886B2310A6268501C606026
:10218000206881546268501C606020688654D4E9DD
:102190000012881832461299FEF73AF86068304407
:1021A00060601398FEF720F886B2310A6268501C0E
:1021B0006060206881546268501C606020688654AA
:1021C000D4E90012881832461399FEF721F86068A6
:1021D0003044606000BF05F08000C8B15046FEF793
:1021E00003F886B2310A6268501C6060206881542E
:1021F0006268501C606020688654D4E90012881818
:1022000032465146FEF704F860683044606000BF13
:1022100005F04000C8B15846FDF7E6FF86B2310A26
:102220006268501C6060206881546268501C606065
:1022300020688654D4E90012881832465946FDF7C2
:10224000E7FF60683044606000BF0020C8E600001F
:10225000000000002DE9F84F8046894693469A46D3
:102260000D9C002700250020009000266060207350
:10227000A060B8F1000F02D10120BDE8F88F002561
:102280000AE019F80500232803D019F805002B28C7
:1022900001D10220F1E76D1C19F805000028F0D1EA
:1022A00046F030060B9808B146F0010605EB0A002F
:1022B000871C0A9820B1012804D002280AD105E021
:1022C00000BF09E046F00206BF1C05E046F0040628
:1022D000BF1C01E00320D0E700BFF91C2046FFF738
:1022E000F8FD206808B90420C7E7F91C2068FDF74D
:1022F00054FF6168481C606020684654D4E90002BD
:1023000081183846FFF7CEFD00900098002804DAC7
:102310002046FFF7B9FD0520AFE761680098084443
:102320006060C5F307216268501C606020688154BA
:102330006268501C606020688554D4E900128818D7
:102340002A464946FDF764FF6068284460600A98A1
:1023500060B14FEA18216268501C606020688154A7
:102360006268501C6060206800F80280BBF1000FBA
:1023700009D0D4E90012881852465946FDF748FFA3
:10238000606850446060002077E770B505460C46F1
:1023900004212046FFF79DFD206808B9012070BD8B
:1023A00062216268501C606020688154022162686A
:1023B000501C60602068815429126268501C606063
:1023C000206881546268501C606020688554002039
:1023D000E5E770B505460C4604212046FFF779FD78
:1023E000206808B9012070BD62216268501C6060DD
:1023F0002068815402216268501C6060206881540A
:1024000029126268501C6060206881546268501C08
:102410006060206885540020E5E770B505460C46ED
:1024200004212046FFF755FD206808B9012070BD42
:1024300050216268501C60602068815402216268EB
:10244000501C60602068815429126268501C6060D2
:10245000206881546268501C6060206885540020A8
:10246000E5E770B505460C4604212046FFF731FD2F
:10247000206808B9012070BD62216268501C60604C
:102480002068815402216268501C60602068815479
:1024900029126268501C6060206881546268501C78
:1024A0006060206885540020E5E72DE9FF5F8046E5
:1024B000174699460E9C0026B246B3460025B8F151
:1024C000000F03D1012004B0BDE8F09F0BE057F8E6
:1024D000250008B90220F6E757F82500FDF784FE2D
:1024E0000644681CC5B24D45F1DB09EB4900801C70
:1024F00000EB060A0AF105012046FFF7EAFC206816
:1025000008B90320DFE782216268501C6060206800
:102510008154D4E9000281185046FFF7C3FC83467A
:10252000BBF1000F04DA2046FFF7AEFC0420CAE737
:102530006068584460604FEA18216268501C60600F
:10254000206881546268501C6060206800F8028036
:10255000002524E057F82500FDF746FE0646C6F3A1
:1025600007216268501C6060206881546268501CBA
:10257000606020688654D4E90023D01857F82510ED
:102580003246FDF745FE6068304460600198C1B294
:102590006268501C606020688154681CC5B24D455B
:1025A000D8DB00208FE72DE9F05F80460F4691468B
:1025B0001C460026B246B3460025B8F1000F02D1F2
:1025C0000120BDE8F09F0BE057F8250008B9022074
:1025D000F7E757F82500FDF707FE0644681CC5B26B
:1025E0004D45F1DB022000EB490000EB060A0AF141
:1025F00005012046FFF76DFC206808B90320E0E7DD
:10260000A2216268501C606020688154D4E90002F5
:1026100081185046FFF746FC8346BBF1000F04DAF1
:102620002046FFF731FC0420CBE760685844606027
:102630004FEA18216268501C60602068815462680B
:10264000501C6060206800F8028000251DE057F8EB
:102650002500FDF7C9FD0646C6F307216268501C38
:102660006060206881546268501C606020688654F5
:10267000D4E90023D01857F825103246FDF7C8FDDD
:10268000606830446060681CC5B24D45DFDB0020E7
:1026900097E7F0B504460D4626460123002010605A
:1026A000002114E0775C07F07F07106807FB030048
:1026B0001060705C00F0800008B9481CF0BDDB01C0
:1026C000B3F5001F02D36FF00100F7E7491CA942E0
:1026D000E8DB4FF0FF30F1E72DE9F84307460C4601
:1026E00015462F21F81CFDF775FD064600200090C9
:1026F000804616B90120BDE8F883761C6A4604219D
:10270000781CFFF7C6FF252003F048FF20602068F3
:1027100008B90220EFE725212068FDF73EFD2422BD
:1027200031462068FDF720FD243600982C381FFA2A
:1027300080F808F1010003F031FF2860286820B913
:10274000206803F031FD0320D5E708F10101286876
:10275000FDF723FD424631462868FDF705FD0020C0
:10276000C9E701464878022801D0012070478878DF
:1027700010B18878012801D1C878F7E7FF20F5E784
:102780002DE9FC5F81460D4616469A4699F80000F1
:1027900000F00F0B002001900BF0080000904FF0AC
:1027A00000080024CBF341008AF8000001AA0421AC
:1027B00009F10100FFF76DFF4844471C019802280A
:1027C00002D30BF0010010B1FF20BDE8FC9F787828
:1027D000397840EA0124A01C0199814201D2FF20EE
:1027E000F3E749A1B81CFDF7E3FC08B10F20ECE7C3
:1027F0009AF8000020B1012833D0022872D131E0CC
:10280000009808B1FF20E0E7601C03F0C7FE2860D5
:10281000286808B9FF20D8E7611C2868FDF7BDFCCF
:102820002246B91C2868FDF79FFC0198801EA0EB8A
:10283000040808F1010003F0B1FE3060306820B9EF
:10284000286803F0B1FCFF20BFE708F10101306800
:10285000FDF7A3FCBA1C111942463068FDF784FC51
:1028600042E000BFA01C0199884201D9FF20ACE7DB
:10287000E01C395CA01C385C41EA00210C98018006
:102880000C9808B9FF20A0E7601C03F087FE2860C1
:10289000286808B9FF2098E7611C2868FDF77DFCCF
:1028A0002246B91C2868FDF75FFC0198001FA0EBC9
:1028B000040808F1010003F071FE3060306820B9AF
:1028C000286803F071FCFF207FE708F10101306800
:1028D000FDF763FC3A1D111942463068FDF744FCD0
:1028E00002E0FFE7FF2070E700BF2B212846FDF73D
:1028F00071FC20B923212846FDF76CFC08B1FF20AC
:1029000063E7002061E70000246372657100000046
:1029100001464878022801D001207047887820B904
:10292000C8780A2801D10020F7E70120F5E7014621
:102930004878022801D001207047887820B9C878EB
:102940000A2801D10020F7E70120F5E70146487881
:10295000022801D001207047887820B9C8780A2859
:1029600001D10020F7E70120F5E702465078022860
:1029700001D0012070479078B0EB112F05D1D078AD
:10298000CBB2984201D10020F4E70120F2E7000029
:10299000F8B50446FF2720780511012D01DB0E2D27
:1029A00001DD3846F8BD032D24D1002000906A4691
:1029B0000421601CFFF76DFE2044461C009802288D
:1029C00003D3207800F0010008B1FF20EAE7707817
:1029D000317840EA0120801C0099884201D9FF200B
:1029E000E0E706A1B01CFDF7E3FB08B10F2700E00C
:1029F000032700E02F463846D4E7000024637265C1
:102A0000710000000146FF208A78A2B9CA78142A12
:102A100011D10A7932B1012A05D0022A04D0802AC4
:102A200006D103E000BF00BF002003E0012001E069
:102A3000022000BF00BF7047014601208A781AB902
:102A4000CA781E2A00D10020704700007FB50546D5
:102A50000E46002000900190029003906B46324693
:102A600029460A20FFF79FFDD0B9019882B20420C1
:102A7000009904F03DF8642003F060F9042003F0AD
:102A8000ECFB044622460749042003F0AFFE05484C
:102A900000780B21B1EB201F02D103A001F03EF81A
:102AA0007FBD000030090020B3C9B9A6C8A1CFFB83
:102AB000B6A9D4C40D0A000000BFFEE770470000AD
:102AC00070B5002100230F22C47804B3154C24688C
:102AD00004F4E064C4F5E064210AC1F10403CA40CF
:102AE000447804FA03F184781440214309010E4C20
:102AF0000678A155047804F01F050124AC40057840
:102B00006D11AD0005F1E025C5F8004109E004783C
:102B100004F01F050124AC40044D0678761145F8F9
:102B2000264070BD0CED00E000E400E080E100E034
:102B300002490143024A1160704700000000FA0593
:102B40000CED00E07047000010B51848006800F078
:102B50000200022805D01548006800F00200012894
:102B60000AD14FF400511248FFF77BF84FF480412F
:102B70000F48FFF778F809E04FF400510C48FFF7D1
:102B800072F84FF480410A48FFF76BF84FF48870F1
:102B900002F034FE012807D100214FF4887002F0C2
:102BA0007DFE01200349087010BD000008080140A7
:102BB00000100140E700002029B1064AD269024313
:102BC000044BDA6104E0034AD2698243014BDA61C3
:102BD000704700000010024029B1064A1269024302
:102BE000044B1A6104E0034A12698243014B1A61E3
:102BF000704700000010024029B1064A9269024362
:102C0000044B9A6104E0034A92698243014B9A6142
:102C1000704700000010024029B1064AD268024302
:102C2000044BDA6004E0034AD2688243014BDA6065
:102C3000704700000010024030B50021002200243F
:102C400000232D4D6D6805F00C0121B1042905D03C
:102C5000082923D105E0294D056022E0274D0560B4
:102C60001FE0254D6D6805F47012234D6D6805F465
:102C70008034022505EB92421CB9214D5543056075
:102C80000BE01D4D6D6805F400351DB11C4D55431D
:102C9000056002E0194D5543056002E0174D0560DF
:102CA00000BF00BF144D6D6805F0F0010909154D16
:102CB0006B5C0568DD4045600F4D6D6805F4E061B3
:102CC000090A104D6B5C4568DD4085600A4D6D68F2
:102CD00005F46051C90A0B4D6B5C4568DD40C56069
:102CE000054D6D6805F44041890B074D6B5CC56867
:102CF000B5FBF3F5056130BD0010024000127A000B
:102D000000093D00E8000020F800002010B58021F7
:102D10000748FEF7A6FF022003F02EF880210448A2
:102D2000FEF7A1FF4FF4C86003F008F810BD0000E3
:102D30000010014010B5044600BF02210A4800F00F
:102D400021F80028F9D02146074800F027F800BFF5
:102D50000121054800F016F80028F9D0024800F0DB
:102D60001AF8C0B210BD00000038004021B102883E
:102D700042F04002028004E002884FF6BF731A401E
:102D8000028070470246002013890B400BB10120DE
:102D900000E00020704701468889704781817047B4
:102DA00010B50022028802F441520B884C8823435C
:102DB0008C882343CC8823430C8923434C892343A9
:102DC0008C892343CC8923431A430280838B4FF29F
:102DD000FF74234083830B8A038210BD00B587B044
:102DE00001211D20FFF708FF01210803FFF704FF61
:102DF00006A8FEF73AFF1020ADF818008DF81B006A
:102E000003208DF81A0006A91E48FEF74DFE10217A
:102E10001C48FEF728FF06A8FEF727FFE020ADF8C4
:102E2000180018208DF81B0003208DF81A0006A941
:102E30001548FEF739FE0020ADF804004FF482700B
:102E4000ADF806004FF40060ADF808000220ADF8C0
:102E50000A000120ADF80C004002ADF80E00382049
:102E6000ADF810000020ADF812000720ADF81400F6
:102E700001A90648FFF794FF01210448FFF776FFF8
:102E800007B000BD001001400008014000300140C3
:102E9000704710B500F002F810BD00000CB500201E
:102EA000019000903348006840F480303149086058
:102EB00000BF3048006800F4003000900198401CCA
:102EC0000190009818B90198B0F5A06FF1D1294888
:102ED000006800F4003010B10120009001E00020F3
:102EE00000900098012843D12348006840F010006A
:102EF000214908600846006820F003000860084681
:102F0000006840F0020008601A48406819494860AB
:102F10000846406848600846406840F48060486061
:102F20000846406820F47C1048600846406840F439
:102F3000E81048600846006840F08070086000BFF4
:102F40000C48006800F000700028F9D0094840687B
:102F500020F00300074948600846406840F002003E
:102F6000486000BF0348406800F00C000828F9D111
:102F70000CBD00000010024000200240012080F340
:102F8000138800BF00BF0748006800F4E0600649EE
:102F90000843001D03490860BFF34F8F00BF00BF07
:102FA000FEE700000CED00E00000FA0570470000AD
:102FB00010B51348006840F0010011490860084648
:102FC0004068104908400E494860084600680E49AC
:102FD00008400B4908600846006820F4802008601B
:102FE0000846406820F4FE0048604FF41F008860E7
:102FF000FFF74FFF4FF000600449086010BD00006C
:10300000001002400000FFF8FFFFF6FE08ED00E0B0
:103010004FF0E021096921F004014FF0E022116135
:10302000C21700EB5272C2F3C702074B1A7019465F
:10303000097801EB4102C2EBC1114FF6FF7202EABF
:10304000C101024A118070472400002026000020A0
:103050000EB501210846FFF7AFFD4FF0804000F0AC
:103060005FF96420ADF804004720ADF800000020AF
:10307000ADF8020069464FF0804000F05FFA012190
:10308000880700F03AF901221146900700F04DFA46
:103090000121880700F037F900210120FFF78CFD9E
:1030A0000EBD000010B50121880700F02DFA78B19F
:1030B0000121880700F024F9002407E0054850F8B2
:1030C0002400401C034941F82400641C152CF5DB46
:1030D00010BD00001C03002008B54FF4E060FFF7AE
:1030E00027FD1C208DF8000000208DF80100042031
:1030F0008DF8020001208DF803006846FFF7E0FC20
:1031000008BD00000EB501210220FFF755FD114852
:1031100000F006F96420ADF804004720ADF8000087
:103120000020ADF8020069460A4800F007FA0121C4
:10313000084800F0E2F801221146064800F0F5F9CF
:103140000121044800F0DFF800210220FFF734FDE0
:103150000EBD00000004004010B50121104800F031
:10316000D3F9E0B101210E4800F0CAF80D4800681B
:10317000401C0C490860084600684CF250318842F7
:1031800007DB09480068401C074908600020054922
:10319000086005480068022801D9FFF7EFFE10BD5E
:1031A00000040040140000201800002008B54FF46F
:1031B000E060FFF7BDFC1D208DF8000000208DF8B9
:1031C00001000B208DF8020001208DF803006846F5
:1031D000FFF776FC08BD00000EB501210420FFF7C3
:1031E000EBFC114800F09CF86420ADF80400472087
:1031F000ADF800000020ADF8020069460A4800F072
:103200009DF90121084800F078F80122114606488E
:1032100000F08BF90121044800F075F8002104202A
:10322000FFF7CAFC0EBD00000008004010B50121E8
:103230001F4800F069F9002839D001211C4800F02E
:103240005FF81C480078012804D11B484068401CE6
:103250001949486019480078012804D11648806847
:10326000401C1549886016480078012804D112488E
:10327000C068401C1049C86012480078012804D179
:103280000D480069401C0C4908610F48007801286E
:1032900004D109484069401C074948610B4800783F
:1032A000012804D104488069401C0349886110BD8D
:1032B00000080040280000207003002029000020A2
:1032C0002A0000202B0000202C0000202D000020D0
:1032D00008B54FF4E060FFF72BFC1E208DF80000CE
:1032E00000208DF801000C208DF8020001208DF8DF
:1032F00003006846FFF7E4FB08BDCA43028270473B
:10330000CA430282704721B1028842F00102028062
:1033100004E002884FF6FE731A40028070470000F6
:1033200010B504466848844208D10121C014FFF753
:1033300073FC0021E014FFF76FFCC4E0B4F1804F90
:1033400008D101210846FFF747FC00210120FFF7C3
:1033500043FCB8E05D48844208D101210220FFF718
:103360003BFC00210220FFF737FCACE058488442C8
:1033700008D101210420FFF72FFC00210420FFF7D2
:103380002BFCA0E05348844208D101210820FFF71C
:1033900023FC00210820FFF71FFC94E04E488442E4
:1033A00008D101211020FFF717FC00211020FFF7A2
:1033B00013FC88E04948844208D101212020FFF70E
:1033C0000BFC00212020FFF707FC7CE044488442EE
:1033D00008D101214014FFF71FFC00216014FFF702
:1033E0001BFC70E03F48844209D10121C804FFF76B
:1033F00013FC00214FF40020FFF70EFC63E03A4875
:10340000844209D101210805FFF706FC00214FF491
:103410008010FFF701FC56E03448844209D10121B5
:103420004805FFF7F9FB00214FF40010FFF7F4FB0C
:1034300049E02F48844208D101214020FFF7CCFB0E
:1034400000214020FFF7C8FB3DE02A48844208D114
:1034500001218020FFF7C0FB00218020FFF7BCFB8B
:1034600031E02548844208D101218015FFF7B4FBE3
:103470000021A015FFF7B0FB25E02048844209D1C8
:1034800001210804FFF7C8FB00214FF48030FFF74B
:10349000C3FB18E01A48844209D101214804FFF710
:1034A000BBFB00214FF40030FFF7B6FB0BE01548E3
:1034B000844208D101218804FFF7AEFB00214FF4BC
:1034C0008020FFF7A9FB10BD002C01400004004044
:1034D00000080040000C00400010004000140040B4
:1034E00000340140004C01400050014000540140B4
:1034F00000180040001C0040002000400040014037
:10350000004401400048014030B50246002000233D
:103510000024158A05EA0103958905EA010413B11F
:103520000CB1012000E0002030BD1AB183890B43AB
:10353000838102E083898B43838170470022028864
:103540001D4B98420ED01D4B98420BD0B0F1804FCE
:1035500008D01B4B984205D01A4B984202D01A4B08
:10356000984204D14FF68F731A404B881A43174B79
:10357000984207D0164B984204D04FF6FF431A40AA
:10358000CB881A4302808B8883850B8803850A4B7E
:1035900098420BD0094B984208D00E4B984205D068
:1035A0000D4B984202D00D4B984201D10B7A038605
:1035B0000123838270470000002C01400034014049
:1035C0000004004000080040000C004000100040D3
:1035D0000014004000400140004401400048014008
:1035E00000B585B001210420FFF706FB0121480446
:1035F000FFF7E2FA0420ADF8100018208DF8130050
:1036000003208DF8120004A91748FEF74DFA082090
:10361000ADF8100004208DF8130004A91248FEF73D
:1036200043FA4FF4E13000900020ADF80400ADF80B
:103630000600ADF80800ADF80C000C20ADF80A004B
:10364000012240F22551094800F065F96946074812
:1036500000F086F90121054800F01AF940210348DD
:1036600000F00DF905B000BD000801400044004025
:1036700070B50024002508216B4800F015F938B119
:10368000694800F0D9F9C5B20821674800F0F7F899
:103690000421654800F008F938B1634800F0CCF91E
:1036A000C5B20421604800F0EAF802215E4800F04B
:1036B000FBF838B15C4800F0BFF9C5B202215A48A6
:1036C00000F0DDF80121584800F0EEF838B1564816
:1036D00000F0B2F9C5B20121534800F0D0F840F231
:1036E0002551514800F0EDF800287DD04E4800F0FB
:1036F000A3F9C4B24D48007800B170BD4C480078C1
:1037000080B94C48007868B9242C0BD14849087816
:10371000411C474A1170484941F820400120454961
:103720000870EAE7424800780A2814DA414800782D
:10373000012810D13E480078092804DA3F48007873
:1037400020443E4908703A490878411C384A1170B3
:10375000394941F82040364800780A285DD136487A
:103760000068354949680844334989680844324942
:10377000C96808443049096908442F49496908441F
:103780002D49896908442C49C96908442A49096AAC
:1037900008442A4908702848406A0978884235D187
:1037A00000210120FFF708FA2548007860B9244875
:1037B0000078401C2249087001210220FFF7FCF923
:1037C00001212048FFF79FFD4FF400711E48FEF7CE
:1037D0004AFA4FF480711C48FEF743FA20211A4838
:1037E000FEF741FA102100E01CE01748FEF739FA15
:1037F00001200E4908701549087000200F49087013
:103800000120134908700020094908700020084968
:103810000870084908700949087040F225510248AB
:1038200000F02DF800BF68E7004400401E000020B3
:103830002000002021000020DC02002022000020C7
:103840002300002000040040000C01408B000020F9
:103850001F00002008B54FF4E060FFF769F926204B
:103860008DF8000000208DF801000A208DF802007C
:1038700001208DF803006846FFF722F908BD01F426
:103880000072B2F5007F00D100BFCA4302807047CA
:1038900021B1828942F40052828104E082894DF68E
:1038A000FF731A408281704702460020B1F5007F05
:1038B00000D100BF13880B400BB1012000E00020B5
:1038C000704770B50246002400230025002040F612
:1038D0006A16B14200D100BFC1F3421501F01F03C7
:1038E000012606FA03F3012D02D19689334006E042
:1038F000022D02D1168A334001E0968A33400C1221
:10390000012606FA04F41688344013B10CB10120E4
:1039100000E0002070BDF0B503460024002600251D
:10392000002040F66A17B94200D100BF1846C1F323
:10393000421401F01F06012707FA06F5012C01D1F8
:103940000C3004E0022C01D1103000E014301AB128
:1039500007682F43076002E00768AF430760F0BDC8
:103960002DE9F04786B005460E460024A24600BF6A
:10397000A1460027B08900B100BF2F462C8A4CF623
:10398000FF700440F08804432C82AC894EF6F3109B
:103990000440B08831890843718908430443AC81ED
:1039A000AC8A4FF6FF400440B0890443AC8201A8C2
:1039B000FFF742F91F48874202D1DDF810A001E06D
:1039C000DDF80CA0A88900F4004040B10AEBCA0061
:1039D00000EB0A1031684900B0FBF1F807E00AEB90
:1039E000CA0000EB0A1031688900B0FBF1F86420CE
:1039F000B8FBF0F004012009642101FB1089A889BB
:103A000000F4004040B1322000EBC900B0FBF1F0FF
:103A100000F00700044308E0322000EB09106421A5
:103A2000B0FBF1F000F00F0004432C8106B0BDE8BC
:103A3000F08700000038014001468888C0F3080084
:103A40007047C1F308028280704700BFFEE70000A4
:103A500010B504462CB94FF480510548FEF701F922
:103A600005E0012C03D121030148FEF7FCF810BD4D
:103A7000000C014000B587B001218803FFF79CF8D6
:103A800001210920FFF7B8F84FF46040ADF80400B9
:103A900003208DF8060018208DF8070001A91D48A5
:103AA000FEF702F84FF48050ADF8040003208DF8C3
:103AB000060010208DF8070001A91648FDF7F4FF55
:103AC0004FF480511348FEF7CEF80020ADF80800FF
:103AD0004FF48270ADF80A000020ADF80C00ADF88C
:103AE0000E00ADF810004FF40070ADF81200082081
:103AF000ADF814000020ADF816000720ADF818004E
:103B000002A90548FFF74CF901210348FFF72EF9F8
:103B100007B000BD000C0140003800400FB4054B59
:103B200010B503A9044A029800F0E2F810BC5DF851
:103B300014FB000085610008CC0200200FB4084B84
:103B400010B504A902AA039800F0D2F8044602A90D
:103B5000002000F064FC204610BC5DF814FB00005F
:103B60001F44000800487047D802002002E008C83F
:103B7000121F08C1002AFAD170477047002001E0E7
:103B800001C1121F002AFBD1704700002DE9FF5F21
:103B9000DDE90220010DDDF838B0024318D044F60B
:103BA0001050A1F2FF3141430D140F98012820D08D
:103BB000A5EB0B00401C5FEA000A4FF00004474EE3
:103BC000DFF81C91A046504616D5CAF1000728E040
:103BD0000F98012443A2012808D0002100980F9BD0
:103BE000C0E90021C0E90243BDE8FF9F6FEA0B0175
:103BF000F4E7CBF10000DEE7074612E0F80707D054
:103C00002246334640464946FCF72CFB804689460F
:103C10002246334610461946FCF724FB04460E465E
:103C20007F10002FEAD1DDE90201BAF1000F424610
:103C30004B4602DAFCF716FB01E0FCF7C5FD044633
:103C40000E460022284BFCF747FE03D84FF0FF300A
:103C5000014607E00022254B20463146FCF70DFDCA
:103C6000FCF721FE102409E0002C0ADB0A220023C5
:103C7000FCF706FC019B30321A55641E50EA010223
:103C8000F2D1641C019AC4F1110314440F9A012A61
:103C900003D0012208430DD10AE0084304D00020DC
:103CA0004FF0110B0F9080E7A3EB0B056D1E0DE09D
:103CB0005B4504DD4FF0000205F1010504E003DA85
:103CC0004FF00002A5F10105002AECD000980F99F1
:103CD000C0E90231C0E9004586E700000000244049
:103CE0000000F03F300000000000F0430000E03F23
:103CF0002DE9FF4F95B09B468946064600250FE209
:103D0000252877D100242746F84A0121059400E0B0
:103D1000044316F8013F203B01FA03F01042F7D1AB
:103D200030782A2811D06FF02F033078A0F13002BC
:103D3000092A16D8059A44F0020402EB820203EB2A
:103D400042021044761C0590EFE759F8042B0592C7
:103D5000002A03DA504244F40054059044F002046F
:103D6000761C30782E2816D116F8010F44F0040482
:103D70002A280DD06FF02F023078A0F13003092BE4
:103D800009D807EB870302EB4303C718761CF3E758
:103D900059F8047B761C30786C280FD006DC4C2850
:103DA00017D068280DD06A2814D104E0742810D0E8
:103DB0007A280FD10DE044F400140AE044F4801492
:103DC00001E044F440147278824202D104F5801478
:103DD000761C761C307866280BD013DC582877D0F8
:103DE00009DC002875D04528F6D04628F4D04728AD
:103DF0001AD19DE118E0632835D0642879D0652870
:103E000012D195E1702873D008DC6728F1D06928B9
:103E10006FD06E280DD06F2806D1B5E073282CD056
:103E2000752875D0782874D05A46179990476D1C1C
:103E300075E1C4F30250022809D003280DD0D9F847
:103E4000001004280DD00D6009F1040967E1D9F8CC
:103E50000010EA17C1E90052F6E7D9F800100D800A
:103E6000F2E70D70F0E719F8041B8DF80010002040
:103E70008DF80100EA46012003E059F804AB4FF049
:103E8000FF3061074FF0000102D40DE008F101019D
:103E90008846B9420FDA8045F8DB1AF80810002985
:103EA000F4D108E008F1010188468142FADB1AF8F2
:103EB00008100029F6D105985B46A0EB08072146BB
:103EC0003846179A00F094FA284400EB080507E0FA
:103ED0004DE029E10DE01AF8010B5A461799904779
:103EE000B8F10108F7D25B4621463846179A13E12C
:103EF00042E00A220092C4F302524FF0000A022A62
:103F000008D059F804CB032A4FEAEC710AD00DE02F
:103F100029E02AE009F1070121F00702F2E802C1D5
:103F2000914609E00FFA8CFC4FEAEC71042A03D1A8
:103F30004FFA8CFC4FEAEC71002907DA0A4600219F
:103F4000DCF1000C61EB02012D2202E0220504D518
:103F50002B228DF80420012203E0E20701D0202269
:103F6000F7E7904659E00A2102E010220DE0102107
:103F70004FF0000A00910BE010224FF0000A44F0CD
:103F800004040827009203E008224FF0000A009280
:103F9000C4F30252022A05D059F804CB0021032AA7
:103FA00008D009E009F1070121F00702F2E802C197
:103FB000914605E01FFA8CFC042A01D10CF0FF0C9D
:103FC0004FF00008220728D5702806D0009B83F008
:103FD000100353EA0A0305D00EE040228DF80420B6
:103FE000012208E05CEA010206D030228DF80420AC
:103FF0008DF8050002229046009B83F0080353EAE7
:104000000A030AD15CEA010201D1620705D5302218
:104010008DF804204FF001087F1E582804D034A0EA
:1040200003900EA802900DE036A0F9E753466046D3
:10403000009AFCF725FA84460398825C0298401E99
:10404000029002705CEA0100F0D1029806A9081AF9
:1040500000F1200A600702D524F4803400E0012733
:10406000574502DDA7EB0A0000E0002000EB0A0143
:10407000009005984144401A0590E00306D45B4641
:104080002146179A059800F0B3F90544002706E089
:1040900001A85A46C05D179990476D1C7F1C474583
:1040A000F6DBE0030CD55B462146179A059800F035
:1040B0009FF9054404E030205A46179990476D1C3B
:1040C0000099481E00900029F5DC08E0029802994A
:1040D0005A460078491C0291179990476D1CBAF115
:1040E0000001AAF1010AF1DC65E1000009280100E4
:1040F000303132333435363738396162636465665E
:10410000000000003031323334353637383941421F
:10411000434445460000000000F058F90544761C71
:10412000307800287FF4ECAD19B02846BDE8F08F58
:10413000620700D4062709F1070222F0070CFCE809
:104140000223E14603F000485FEA080C02D00FF2B8
:10415000702C0DE05FEA045C02D50FF2682C07E0DA
:104160005FEAC47C02D00FF2602C01E0AFF2700C69
:104170004FF0FF3823F00043CDF850C065280CD035
:1041800006DC452809D046281DD047283DD13DE012
:10419000662818D067287ED138E00021112F01DB76
:1041A000112000E0781CCDE9000106A90EA8FFF758
:1041B000EDFCDDE90F010E9A03910021009207F159
:1041C000010A04914DE04FF000400097CDE9011045
:1041D00006A90EA8FFF7DAFCDDE90F0203920E9B99
:1041E00011990022DDF80CA00093049211B9791CFA
:1041F00000EB010AB7EB0A0004D4C0F1FF3007F16D
:10420000010A0490AAEB0700019044E0012F00DAB4
:1042100001270021112F01DD112000E03846CDE9F2
:10422000000106A90EA8FFF7B1FCDDE90F010E9A07
:104230000391002104910092BA4621070CD40399FE
:10424000514500DA8A46BAF1010F05DD009AAAF15C
:104250000101515C302908D0B84202DA10F1040F94
:1042600006DA0121CDE9011015E0AAF10101E9E723
:10427000002805DC049901440491AAEB000102E046
:10428000411C514500DD8A460499401A401C0190AA
:104290004FF000400290200704D40198504501DB04
:1042A000CDF8048000208DF84F0002980DF14F07E3
:1042B000B0F1004F25D02B200E9002984FF002084D
:1042C00000280CDA404202902D200E9007E00A21CF
:1042D0000298FCF7BFF83031029007F8011DB8F1E1
:1042E0000001A8F10108F2DC02980028EFD1791E44
:1042F0000E980870307800F0200040F0450007F874
:10430000020D12A8C01B00F107081498007800B134
:10431000012000EB0A01019801EBE071059841448E
:10432000401A401E0590E00306D45B462146179ACA
:10433000059800F05DF805441498007818B15A46C5
:10434000179990476D1CE00324D55B462146179AC8
:10435000059800F04DF805441CE00498002807DBA0
:10436000DDE90301884203DD0098405C179901E014
:10437000179930205A469047049805F10105401CD2
:1043800004900198401E019004D12E205A4617999E
:1043900090476D1CBAF10001AAF1010ADDDC05E0CD
:1043A00017F8010B5A46179990476D1CB8F1000198
:1043B000A8F10108F4DC5B462146179A0598ABE6A4
:1043C0002D0000002B000000200000002DE9F0412E
:1043D000044600251E461746880404D405E03946E5
:1043E0002020B0476D1C641EF9D52846BDE8F08139
:1043F0002DE9F041044600251E469046C80301D52C
:10440000302700E02027880404D505E041463846DF
:10441000B0476D1C641EF9D52846BDE8F0810A68D6
:10442000531C0B601070704710B5FDF7A1FC03F032
:104430001FFD01F05BFA642001F080FCFE4800786B
:10444000012804D101F02AFD642001F077FCFB482B
:104450000088012813D10020F8490880FEF756FC97
:1044600003F006FD03F034FB03F0E0F901F0A2FCD9
:10447000F349F44803F060FC0120F3490860F34875
:10448000406C46F2A811884202D30020EF494864EC
:10449000EE48806BEE49884260D30020EB49886388
:1044A000EC480068401CEB4908600222EA490420FD
:1044B00002F01EFB642001F041FCE8480078D0289F
:1044C00019D10C20E04908600020E5490880E54941
:1044D00008704FF40061E148FBF75FFE0120E249FC
:1044E0000870E2A0FFF71AFB0020E34908700120E2
:1044F000E249087032E0DA480088401CD849088058
:10450000D8480078401CD74908700E20CE49086072
:10451000D3480188DAA0FFF701FBD14800880228C0
:104520001CDDDDA0FFF7FAFA0020CD49088001204C
:10453000C24908800020D14908700222DC490420C9
:1045400002F0D6FA0020C84908704FF40061C34851
:10455000FBF723FE8021D748FBF71FFEBB48C06B4B
:10456000D549884215D30020B849C863D3480068AC
:10457000401CD2490860BC480078012809D1B848DD
:104580000088012805DACEA0FFF7C8FA0320AE495B
:104590000860AE480068F8B10020AC490860CB481C
:1045A0000078012805D10220C9490870B249087075
:1045B00012E0C8480078012807D0C74800780128D1
:1045C00003D0C6480078012803D10120C0490870F3
:1045D00002E00020BE4908709C48C06AB0F57A6FBE
:1045E00061D300209949C862BD480078401CBC498D
:1045F0000870B748007820B1012821D0022851D195
:104600003DE0B848007868B94FF40071B648FDF74E
:104610002AFB4FF48071B448FDF723FB0120B14918
:1046200008700CE04FF40071AF48FDF71CFB4FF42D
:104630008071AD48FDF717FB0020AA49087031E0F2
:10464000A848007801280CD10102A748FDF70BFB10
:104650004FF40071A448FDF704FB0020A149087045
:104660000CE04FF48071A048FDF7FDFA4FF40071A3
:104670009D48FDF7F8FA01209A49087012E04FF4BE
:1046800000719948FDF7EFFA4FF480719648FDF7F5
:10469000E8FA20219448FDF7E6FA10219248FDF748
:1046A000E0FA00BF00BF6948406A44F620618842D2
:1046B00033D30020654948628C48FCF7E7FE8B49FC
:1046C0004878FBF741FE8A49086088490878FBF77B
:1046D0003BFE88490860884985480068FBF7B0FEC2
:1046E00011D3854983480068FBF7AAFE0BD300214C
:1046F0007F480068FBF79AFE05D000217D480068DE
:10470000FBF794FE06D17DA0FFF708FA012071495E
:10471000087002E000206F4908704C488069B0F5CD
:10472000FA6F5ED30020494988615348007820B170
:1047300001281DD0022853D136E07748007858B9B7
:1047400020216948FDF78FFA10216748FDF789FAA3
:104750000120714908700AE020216348FDF783FABF
:1047600010216148FDF77FFA00206B49087037E09F
:104770006948007801280BD110215B48FDF773FAD6
:1047800020215948FDF76DFA0020634908700AE0BE
:1047900010215548FDF767FA20215348FDF763FAC9
:1047A00001205D4908701BE04FF400714E48FDF791
:1047B0005AFA4FF480714C48FDF753FA20214A48C9
:1047C000FDF751FA10214848FDF74BFA00214FF050
:1047D0008040FEF798FD00210120FEF7EDF900BFB3
:1047E00000BF4E480078022820D14D480078E8B933
:1047F0001648806C40F6B831884217D30020134920
:10480000886446480078022810D101034548FDF726
:1048100028FA4FF480414348FDF725FA40480078D4
:10482000401C3F49087040A0FFF778F93B480078EA
:1048300000B983E0A1E00000200100208E000020EC
:104840003101002029010020B80200201C030020B3
:10485000A0860100C8000020C0020020000A00203D
:1048600090000020920000204C000020CAD5B5BD69
:10487000D0C4CCF80D0A000095000020BD00002037
:10488000CEB4CAD5B5BDD0C4CCF8B4CECAFDA3BA97
:104890002025640D0A000000D0C4CCF8B3ACCAB126
:1048A000A3ACD6D8D0C2C1ACBDD3A3A10D0A000021
:1048B0005000002030090020E0930400CC000020CC
:1048C000B7A2B2BCCFFBCFA20D0A00008B00002024
:1048D00094000020890000208A0000208C00002025
:1048E0009300002096000020000C01406100002091
:1048F0009C000020A0000020000048425468652071
:1049000044485431312069732064656D6167656482
:1049100020210D0A0000000097000020D000002098
:10492000D20000200010014061636320697320639E
:104930006C6F73656420210D0A000000FE4800784A
:10494000D8B1FE48806C40F6B831884215D30020BB
:10495000FA498864FA48007878B94FF40051F94868
:10496000FDF781F94FF48041F648FDF77AF9002010
:10497000F1490870F4A0FFF7D1F8F8480078012851
:1049800015D1F748007890B1EC48C06C40F6C411DE
:1049900088420CD30020E949C864F0480078012817
:1049A00005D10020EE490870EEA0FFF7B7F8EB48FC
:1049B0000078B0B9EA48007898B9E048C06C40F691
:1049C000C41188420DD30020DC49C864E348007854
:1049D00038B9E3480078401CE1490870E6A0FFF7C9
:1049E0009DF8D648C06941F28831884238D300200A
:1049F000D249C861E548FCF757F8E4480068E44943
:104A00000860E2484068E3490860E0488068E2499D
:104A100008600021DE480068FBF708FD1BD100217B
:104A2000DC480068FBF702FD15D10021DA48006878
:104A3000FBF7FCFC0FD1D9480078401CD74908701F
:104A40000846007805280BDD0120D5490870D5A05F
:104A5000FFF764F804E00020D0490870D0490870DE
:104A6000D8480078052801DDFEF788FAD648007896
:104A700010280ED1D448407810280AD101214FF4D3
:104A8000887000F00BFF4FF47A7001F057F9FEF7D1
:104A900075FACE480078012878D101F047FC01F082
:104AA00069FCCB48007801280CD1CA48007801285D
:104AB00008D10421C848FDF7D4F80821C748FDF7FC
:104AC000D2F807E00421C448FDF7CDF80821C34817
:104AD000FDF7C9F8C2480078012806D0C14800781F
:104AE000012802D0C048007890BBB948007801285E
:104AF00014D1B848007888B9BCA0FFF70FF803209C
:104B0000B74908700020B74908700120B6490870FD
:104B10000020BC490870BC490870ADE0AC48007882
:104B20000028FAD1AB4800780128F6D1B7A0FEF7EB
:104B3000F5FF0020AA4908700320AA490870012047
:104B4000A94908700020AF490870AF49087093E088
:104B5000FFE701F0EBFB9E480078012840D1A14817
:104B60000078032806D10420A749087000209D4939
:104B7000087038E0A4480078052808D098480078E4
:104B8000032804D004209F4908702CE0FFE19E48D0
:104B90000078052827D1A348007800BBA248006808
:104BA000401CA14908600846006818B9084600681A
:104BB000401C08609DA0FEF7B1FF9B480168A0A0C3
:104BC000FEF7ACFF97480078401C9649087000201B
:104BD0008D4908708B49087001208149087002E0F6
:104BE00000209049087001F0C5FB7A480078012840
:104BF0003FD17B480078032806D105208249087000
:104C000000207749087037E07E480078042807D0F4
:104C100074480078032803D005207B4908702BE0F6
:104C200078480078042827D18C48007800BB7E485B
:104C30000068401E7C4908600846006818B90846AC
:104C40000068401E086079A0FEF768FF764801689A
:104C500083A0FEF763FF81480078401C7F490870FD
:104C60000020684908706849087001205D49087093
:104C700002E000207949087001F0A0FB7E4800782E
:104C800001281CD17D48007838B97DA0FEF746FF89
:104C90007A480078401C7949087000207C490870E7
:104CA0007C490870254908654FF400417A48FCF7B3
:104CB000D8FF4FF480612348FCF7D5FF1FE01F4861
:104CC000006D764988420DD37148007838B974A0D8
:104CD000FEF724FF6E480078401C6D4908700120E3
:104CE0006C4908700020654908704FF400416A481B
:104CF000FCF7B9FF4FF480611248FCF7B2FF01F0F6
:104D000081FB6F480078012815D16E48007888B97A
:104D10000120454908600846016851A0FEF7FEFEE3
:104D200000202F4908702F4908703649087036490D
:104D30000870C9E0CFE0D4E0D20000201C030020BE
:104D4000D000002000100140616363206973206F70
:104D500070656E656420210D0A000000D1000020FE
:104D6000D3000020626174746572792069732068D1
:104D700069676820210D0A00626174746572792088
:104D80006973206C6F7720210D0A000060040020F9
:104D90007C0000208000002084000020880000208B
:104DA0008C000020416363656C65726174696F6E8D
:104DB0002069732064656D616765642021200D0A98
:104DC0000000000092000020B0090020BD0000207B
:104DD0002E0000202F00002000140140000C014094
:104DE000BF000020C0000020BE000020CFD6D4DAD3
:104DF000B5C4C2A5CCDDCAC7C9CFD0D020A3A10DF0
:104E00000A000000B9000020B8000020CFD6D4DA94
:104E1000B5C4C2A5CCDDCAC7CFC2D0D020A3A10DD6
:104E20000A000000B200002064000020B5E7CCDDDD
:104E3000D2D1BEADBECDCEBB20A3A10D0A000000D5
:104E4000CFD6D4DAB5C4C2A5B2E3CAC72020256440
:104E50002020B2E320A3A10D0A000000B30000202F
:104E6000CFD6D4DAB5C4C2A5B2E3CAC72020256420
:104E70002020B2E30D0A000030000020B400002022
:104E8000C3C5D2D1B9D8B5BDCEBB200D0A00000034
:104E9000BB000020BA00002000080140C0C62D0061
:104EA000C3C5B3A4CAB1BCE4CEB4B9D8A3ACB7A24D
:104EB000CBCDB9CAD5CFB1A8CEC42021200D0A00D0
:104EC00031000020B5000020FE490870FE4800783F
:104ED000401CFD4908704FF40061FC48FCF7C1FE1E
:104EE00007E00020F84908704FF40061F748FCF72C
:104EF000BAFE01F0A9FAF6480078012818D1F54861
:104F00000078E8B9F4A0FEF709FEF7A0FEF706FE68
:104F1000F0480078401CEF4908704FF40061F848F1
:104F2000FCF79FFE4FF48051F548FCF79CFE07E02C
:104F30004FF40061F248FCF796FE0020E549087046
:104F400001F0A4FAEF480078012818D1EE48007863
:104F5000E8B9E1A0FEF7E2FDECA0FEF7DFFDEA48CC
:104F60000078401CE84908704FF40061E448FCF701
:104F70007AFE4FF48051E248FCF773FE07E04FF4ED
:104F80008051DF48FCF76FFE0020DF490870E548DC
:104F9000007801287ED10020E3490860E3490860D9
:104FA000E3490870DF490870E2484068012872D17F
:104FB000E048C06801281FD1DF4908702420DF497C
:104FC00008700120487006208870002000F016FC50
:104FD000DA49C870022000F011FCD8490871042099
:104FE00000F00CFCD5494871062000F007FCD349BD
:104FF00088710020C8710872CE48C068022820D18C
:105000000120CD4908702420CC4908700220487046
:1050100006208870102000F0F1FBC849C8701220EB
:1050200000F0ECFBC5490871142000F0E7FBC34910
:105030004871162000F0E2FBC04988710020C87159
:105040000872BC48C06803282AD10120BA490870F8
:105050002420BA4908700320487006208870202058
:1050600000F0CCFBB549C870222000F0C7FBB34963
:105070000871242000F0C2FBB0494871262000F0DE
:10508000BDFBAE498871282000F0B8FBAB49C87160
:105090002A2001E08FE3F1E100F0B0FBA74908729C
:1050A000A448C068042820D10120A3490870242006
:1050B000A24908700420487006208870302000F053
:1050C0009DFB9E49C870322000F098FB9B490871F7
:1050D000342000F093FB99494871362000F08EFB94
:1050E000964988710020C87108729248C0680528E6
:1050F00020D1012090490870242090490870052093
:10510000487006208870402000F078FB8B49C870FA
:10511000422000F073FB89490871442000F06EFBC7
:1051200086494871462000F069FB84498871002057
:10513000C87108727F48C06806281FD101207E49C7
:10514000087024207D49087006204870887050201F
:1051500000F054FB7949C870522000F04FFB7749AA
:105160000871542000F04AFB74494871562000F041
:1051700045FB724988710020C87108726D48C0688B
:10518000072818D101206C49087024206B49087049
:105190000720487006208870602000F02FFB6749C8
:1051A000C870622000F02AFB644908710020487131
:1051B0008871C87108725F48C068082847D1604884
:1051C000FBF772FC5E4800685E4908605C48406816
:1051D0005D4908605A4880685C4908605C48FCF793
:1051E00055F95B494878FBF7AFF85A4908605849C8
:1051F0000878FBF7A9F85849086001204E49087063
:1052000024204E49087008204870062088705148B4
:105210000068FBF7AFF84949C8704F480068FBF7D2
:10522000A9F84649087147480068FBF7BCF84349AC
:10523000487145480068FBF7B6F840498871434813
:105240000068FBF7B0F83D49C87100200872394882
:10525000C068092814D10120374908702420374933
:10526000087009204870062088700020C8700871F6
:1052700048718871C87108724FF4036100F072FFC1
:105280002C48C068102877D14FF47A7000F056FD92
:105290004FF47A7000F052FD4FF47A7000F04EFD3A
:1052A0004FF47A7000F04AFD4FF47A7000F046FD3A
:1052B0004FF47A7000F042FD4FF47A7000F03EFD3A
:1052C0004CE059E0BE000020B50000200010014075
:1052D00032000020B6000020D1CFD6D8B9CAD5CF31
:1052E00020A3A10D0A000000CFD6D4DAB5E7CCDDAB
:1052F000D2D1B5BDB6A5B2BF2021200D0A00000055
:105300000008014033000020B7000020CFD6D4DAD7
:10531000B5E7CCDDD2D1B5BDB5D7B2BF2021200DC8
:105320000A0000001E0000201400002018000020C9
:10533000BD000020DC020020630000207C0400206F
:10534000600400207C0000208000002084000020F9
:10535000610000209C000020A00000204FF47A7023
:1053600000F0ECFC4FF47A7000F0E8FC4FF47A7037
:1053700000F0E4FCFDF702FEF948C06812287DD178
:105380002420F849087012204870202088700020DE
:1053900000F034FAF349C870022000F02FFAF14906
:1053A0000871042000F02AFAEE494871062000F046
:1053B00025FAEC498871102000F020FAE949C871FB
:1053C000122000F01BFAE7490872142000F016FAC8
:1053D000E4494872162000F011FAE2498872202050
:1053E00000F00CFADF49C872222000F007FADD490C
:1053F0000873242000F002FADA494873262000F0EE
:10540000FDF9D8498873282000F0F8F9D549C87308
:105410002A2000F0F3F9D3490874302000F0EEF9A7
:10542000D0494874322000F0E9F9CE49887434201C
:1054300000F0E4F9CB49C874362000F0DFF9C9491F
:105440000875402000F0DAF9C6494875422000F09E
:10545000D5F9C4498875442000F0D0F9C149C87510
:10546000462000F0CBF9BF490876502000F0C6F97D
:10547000BC494876522000F0C1F900E073E0B94918
:105480008876542000F0BAF9B649C876562000F064
:10549000B5F9B4490877602000F0B0F9B149487710
:1054A000622000F0ABF9AF498877AF48FBF7FCFA10
:1054B000AD480068AD490860AB484068AC49086039
:1054C000A9488068AB490860AB48FBF7DFFFAA49F1
:1054D0004878FAF739FFA9490860A7490878FAF728
:1054E00033FFA7490860A5480068FAF743FF9D49C4
:1054F000C877A3480068FAF73DFF9A4981F8200071
:105500009A480068FAF74FFF964981F821009848B9
:105510000068FAF748FF934981F82200954800682F
:10552000FAF741FF8F4981F8230000209549087060
:1055300000BF07E08B49095C924A12781144914AF6
:105540001170401C2428F5DB8E480078854981F8CD
:105550002400002405E08348015D8B48FEF771FAC2
:10556000641C252CF7DB7E48406802287ED17C48ED
:10557000C06801281ED18549087079480069C1B208
:10558000002000F08BF976484069C1B2022000F09B
:1055900085F973488069C1B2042000F07FF9704832
:1055A000C069C1B2062000F079F901214FF483707F
:1055B00000F074F96A48C06802281ED101207349BE
:1055C000087067480069C1B2102000F067F96448AC
:1055D0004069C1B2122000F061F961488069C1B22E
:1055E000142000F05BF95E48C069C1B2162000F0DB
:1055F00055F90121080200F051F95948C068032803
:105600001DD101206149087055480069C1B22020B0
:1056100000F044F952484069C1B2222000F03EF93E
:105620004F488069C1B2242000F038F94C48C06965
:10563000C1B2262000F032F90120554908704848CF
:10564000C06804281CD101205049087044480069F2
:10565000C1B2282000F022F941484069C1B22A2095
:1056600000F01CF94A480078012800E026E007D144
:1056700000204749087001214FF4817000F00EF9B5
:105680003748C068082819D10120404908703448BB
:105690000069C1B2602000F001F931484069C1B22F
:1056A000622000F0FBF82E4840692D49096940EA64
:1056B00001203849088001203749087037480078B0
:1056C000012821D10020354908702E49087000BFFB
:1056D00007E02449095C2B4A12781144294A1170C9
:1056E000401C0928F5DB274800781E494872002431
:1056F00008E01C48015D2448FEF7A3F9642000F08F
:105700003BFB641C0A2CF4DB20480078012852D1B2
:1057100000201C4908701D49087024201149087098
:105720000F48806810304870062088700020C870CC
:10573000087148718871C871087200BF07E0094993
:10574000095C104A127811440E4A1170401C092855
:10575000F5DB0C48007803494872002429E000007A
:10576000DC0200207C040020600400207C0000207B
:105770008000002084000020610000209C000020A8
:10578000A000002098000020004400406800002095
:105790007500002016010020790000206300002021
:1057A0000548015D0548FEF74CF9642000F0E4FA75
:1057B000641C0A2CF4DB10BD7C0400200044004073
:1057C00008B58020ADF8000003208DF802001420F9
:1057D0008DF8030069460848FCF766F94020ADF8EB
:1057E000000003208DF8020014208DF803006946A4
:1057F0000148FCF759F908BD000C014070B504469A
:10580000E6B272B600F01EF8FE2101EAE41141F0A2
:10581000A00002F0DDFB00F0DDF9304602F0D8FB1D
:1058200000F0D8F900F00EF8A12002F0D1FB00F052
:10583000D1F900F0A7FF054600F01CF862B6284633
:1058400070BD000010B580210948FCF70CFA40211A
:105850000748FCF708FA012000F08EFA802104487E
:10586000FCF7FFF940210248FCF7FBF910BD0000EE
:10587000000C014010B580210748FCF7F2F94021E7
:105880000548FCF7F0F9012000F076FA8021024883
:10589000FCF7E9F910BD0000000C014070B50446AA
:1058A0000D4672B6FFF7CEFFFE2101EAE41141F08A
:1058B000A00002F08DFB00F08DF92046E11704EB0B
:1058C00011610912A4EB0121CEB2304602F080FB37
:1058D00000F080F9284602F07BFB00F07BF9FFF72F
:1058E000C9FF62B6052000F029FA70BD10B500248A
:1058F000002000F09BF8044634B1022C05D0032CA4
:1059000007D0042C1DD10FE01CE00FA0FEF706F914
:1059100018E001201149087001F088FF00F04AFAF0
:105920000FA0FEF7FBF80DE015A0FEF7F7F800203A
:105930001949087019A0FEF7F1F80020074908700E
:1059400000E000BF00BF10BD204950B5D8D6B7BB9E
:10595000F1C8A1B3ACCAB1200D0A0000200100209B
:1059600020D2D1B4D344484350B7FECEF1C6F7B3EA
:10597000C9B9A6BBF1B5C34950B5D8D6B70D0A0011
:1059800020B4D344484350BBF1C8A14950B5D8D640
:10599000B7CAA7B0DC0D0A006001002020D6D8CA23
:1059A000D4D6D00D0A00000010B51B48007803289B
:1059B00026DA1A4800681A49096888422AD900205C
:1059C0001649086008460068401D154908601248DD
:1059D0000078401C1049087012480078012804D053
:1059E000022805D0042809D105E001F003F906E0FA
:1059F00001F0B8FB03E001F0B5FB00E000BF09E0F7
:105A000001F060F801200849087001F0F3F8012066
:105A10000449087010BD00006101002068010020E9
:105A20006C010020600100206201002070B5054675
:105A30000024284600F03BFC48B1284600F00DFC4D
:105A4000061E0DDD304600F0E5FD044608E00023AB
:105A500044220221184602F0F7F808B9012070BD6F
:105A600044480078052875D2DFE800F003111E399C
:105A7000570000204049087001F024F801F0BAF8FE
:105A800000203E49087001203A49087066E0022C67
:105A900007D101F017F801F065FB022035490870C5
:105AA00001E0FFF781FF59E0052C0DD101F00AF864
:105AB00000F070F818B103202E490870CFE70120DC
:105AC0002C4908700420CAE7062C05D100F0FAFF23
:105AD00001202849087001E0FFF766FF3EE02848F2
