:020000040800F2
:100000005019002045010008992A0008B11C000879
:10001000952A000861140008173A00080000000043
:100020000000000000000000000000005D2E00083D
:100030005515000800000000212B0008792F00084A
:100040005F0100085F0100085F0100085F01000810
:100050005F0100085F01000859150008D11500086C
:100060005F0100085F0100085F0100085F010008F0
:100070005F0100085F0100085F0100085F010008E0
:100080005F0100085F0100085F0100085F010008D0
:100090005F0100085F0100085F0100085F010008C0
:1000A0005F0100085F0100085F0100085F010008B0
:1000B0007130000825310008F93100085F0100089F
:1000C0005F0100085F0100085F0100085F01000890
:1000D0005F0100085F0100083D3600085F0100086D
:1000E0008D1500085F0100085F0100085F0100082E
:1000F0005F0100085F0100085F0100085F01000860
:100100005F0100085F0100085F0100085F0100084F
:100110005F0100085F0100085F0100085F0100083F
:100120005F0100085F0100085F0100085F0100082F
:10013000DFF80CD000F0E8FB00480047C168000879
:10014000501900200648804706480047FEE7FEE7B2
:10015000FEE7FEE7FEE7FEE7FEE7FEE7FEE7FEE777
:100160007D2F00083101000840EA01039B0703D0FE
:1001700009E008C9121F08C0042AFAD203E011F8E6
:10018000013B00F8013B521EF9D27047D2B201E0A8
:1001900000F8012B491EFBD270470022F6E710B58C
:1001A00013460A4604461946FFF7F0FF204610BDE5
:1001B00030B505462A460B4612F8010B13F8014BE1
:1001C00008B1A042F8D01CB1002802D06D1CF1E7A4
:1001D000284630BDCAB2401E10F8011F8A4202D024
:1001E0000029F9D100207047421C10F8011B00299A
:1001F000FBD1801A704730B504460020034600E06A
:100200005B1C934203D2E05CCD5C401BF8D030BD58
:1002100010B5044600E0401C0378002BFBD100E041
:10022000401C521E04D311F8013B0370002BF7D180
:1002300000210170204610BD034611F8012B00F883
:10024000012B002AF9D11846704770B5064603F015
:100250006FFC046805460A220021304600F041F98F
:100260002C6070BD2DE9FE4F81EA030404F00044C8
:1002700021F0004100944FF0000B23F0004350EABE
:1002800001045ED052EA03045BD0C3F30A54C1F305
:100290000A552C44A4F2F3340194A0FB0254C1F398
:1002A000130141F48011C3F3130343F4801301FBE2
:1002B000024400FB034E840A970A44EA815447EA49
:1002C0008357A4FB076802958D0A05FB07854FEA53
:1002D000932C04FB0C542705029D4FEA065847EA6D
:1002E0001637B5EB08056EEB070C870E920E47EA42
:1002F000811742EA8312A7FB0201B6EB0B0164EB04
:1003000000042B0D43EA0C335E1844EB1C50DA4614
:100310005146E7FB0201C5F313044FEA0B3343EAEE
:1003200014534FEA0432019C43EA0603A4F10C047F
:100330000294009CCDE900B400F051F903B0BDE88F
:10034000F08F00200146F9E796230022114600F0C5
:1003500009B90EB5C10F80EAE0700844CA07002150
:1003600040F233438DE80E000A460B4600F037F9A1
:1003700003B000BD00F0004220F00040C10DC0F30A
:10038000160040F400007F2901DA0020704796290A
:1003900003DCC1F19601C84001E096398840002A8B
:1003A000F4D04042704720F00040C10DC0F3160069
:1003B00040F400007F2901DA00207047962903DC11
:1003C000C1F19601C840704796398840704700F0E7
:1003D000004230F000400AD0C10D01F56071C0F359
:1003E000160042EA0151C20840071143704700203D
:1003F0000146704701F0004330B421F0004150EA5B
:10040000010206D00A0DA2F56072C1F31301002AA1
:1004100002DC30BC00207047440F44EAC104C10034
:10042000E01830BC00EBC25000F093B8002801DBAC
:10043000C0F10040002901DBC1F100418142704759
:10044000002801DBC0F10040002901DBC1F10041BF
:100450008842704730B50B46014600202022012417
:1004600009E021FA02F59D4205D303FA02F5491B82
:1004700004FA02F52844151EA2F10102F1DC30BD98
:100480002DE9F05F0546002092469B4688460646C9
:10049000814640241BE0284641464746224600F05C
:1004A00054FA53465A46C01A914110D31146184681
:1004B000224600F03BFA2D1A67EB01084F46224610
:1004C0000120002100F032FA17EB00094E41201EF6
:1004D000A4F10104DFDC484631462A464346BDE824
:1004E000F09F2DE9F04791460F46804604460026CE
:1004F00014F8015B2DB100F04BFA0068405DC007B5
:10050000F6D12B2D02D02D2D18D0641E4A46394627
:10051000204600F041FA27B13968A14201D1C7F85D
:10052000008071054FF002040BD54042002803DD26
:1005300003F0FEFA0460A007BDE8F08746F4806689
:10054000E4E70028F8DA03F0F3FA04606FF0004003
:10055000F2E70029A8BF7047401C490008BF20F0FF
:100560000100704710B4B0FA80FC00FA0CF050EAB9
:10057000010404BF10BC704749B1CCF1200421FA3A
:1005800004F411FA0CF118BF012121430843A3EB35
:100590000C01CB1D4FEA00614FEA102042BF002042
:1005A00010BC704700EBC35010440029A4BF10BC1E
:1005B0007047401C490008BF20F0010010BC704784
:1005C00010B5141E73F1000408DA401C41F100015B
:1005D00092185B411A4301D120F0010010BD2DE9B2
:1005E000F04D92469B4611B1B1FA81F202E0B0FAA9
:1005F00080F22032904600F099F904460F4640EA16
:100600000A0041EA0B0153465A46084313D01146EB
:1006100053EA010019D0C8F14002504600F095F9A4
:1006200005460E4650465946424600F07FF90843BB
:1006300005D0012004E020463946BDE8F08D0020B9
:10064000054346EAE0762C4337430A986305E40AFB
:10065000A0EB08000022FD0A44EA47540A3002D504
:1006600000200146E9E7010510196941DDE9084567
:1006700000196941BDE8F04DA2E72DE9FE4F804623
:1006800081EA0300C00F0C46009021F0004123F0E6
:100690000045B8EB0200A94105D2404621469046EC
:1006A0001C460B46024623F00040104347D0270D5E
:1006B000C7F30A00C3F30A510290401A0190402880
:1006C0006BDAC3F3130040F4801B0098924620B10C
:1006D0000023D2EB030A63EB0B0B01985946C0F1E0
:1006E0004002504600F022F906460D465046594653
:1006F000019A00F03AF910EB08006141002487EA02
:10070000115284EAE7731A4340D0009A62B3019A07
:10071000012A4FEA075215DC001B61EB02014FF082
:10072000004202EA0752CDE90042001C41F5801167
:1007300032462B46FFF753FF03B0BDE8F08F40462B
:100740002146F9E7001B61EB0201001C41F5801313
:1007500000185B412018A2F5001747EB030140EA9F
:10076000D570B6196D4111E06D084FEA360645EABD
:10077000C0754FEA0752001B61EB0201001C41F5F6
:10078000801149084FEA30000019514132462B468A
:1007900003B0BDE8F04FFFF713BF009801224000FF
:1007A0000023D0EB020263EBE073009821464FEA8E
:1007B000E074B8EB000061EB0401E9E783F000436B
:1007C0005BE781F0004158E72DE9F04D81EA030431
:1007D00004F0004B21F0004514464FF0000A23F0CE
:1007E000004150EA050220D054EA01021DD0C5F3B1
:1007F0000A570246C5F31303C1F31300C1F30A56A7
:1008000040F4801543F48013A7EB0608101BD6466E
:1008100008F2FD3873EB050002D308F1010801E08E
:1008200092185B41B8F1000F03DA00200146BDE8E1
:10083000F08D00204FF48011064684460EE0171B11
:1008400073EB050705D3121B63EB050306434CEA64
:10085000010C49084FEA300092185B4150EA010749
:10086000EDD152EA030012D082EA040083EA0501C6
:10087000084305D0101BAB4106D20122002306E03D
:1008800000224FF0004302E06FF0010253101AEB18
:1008900006004CEB085110EB0A0041EB0B01BDE8E0
:1008A000F04DFFF78DBEC1F30A52C1F3130140F2C0
:1008B000FF3341F480119A4202DA0020014670476A
:1008C00040F233439A42A2F2334202DC524200F039
:1008D0003CB800F02BB8000030B5041E71F10004E4
:1008E00004DB4FF00044404264EB0101141E73F13D
:1008F000000405DB1C464FF00043524263EB040347
:10090000994208BF904230BD064C074D06E0E068B2
:1009100040F0010394E8070098471034AC42F6D346
:10092000FFF70AFC4886000868860008202A04DBD6
:10093000203A00FA02F1002070479140C2F12003F2
:1009400020FA03F3194390407047202A04DB203A31
:1009500021FA02F00021704721FA02F3D040C2F1DF
:1009600020029140084319467047202A06DBCB1726
:10097000203A41FA02F043EAE07306E041FA02F35A
:10098000D040C2F120029140084319467047000050
:10099000004870474C8500082DE9F05F82460078DA
:1009A000002715468B460AF10104B946302801D0CC
:1009B0009DB113E014F8010B0127782803D05828C3
:1009C00001D045B10AE00DB1102D07D10027102547
:1009D00014F8010B02E0082500E00A250026B046C5
:1009E0000EE005FB080005FB06F1012701EB1046B0
:1009F0001FFA80F8B6F5803F00D3B94614F8010B12
:100A0000294600F018F80028EBDABBF1000F05D0FA
:100A10000FB1641E00E05446CBF80040B9F1000F5E
:100A200006D003F085F802210160C81EBDE8F09FE2
:100A300048EA0640FAE73A2800D2303820F020028F
:100A4000412A01D3A2F13700884201D34FF0FF3091
:100A5000704770B58C1810F8015B15F0070301D1D1
:100A600010F8013B2A1106D110F8012B03E010F811
:100A7000016B01F8016B5B1EF9D12B0705D4002334
:100A8000521E0DD401F8013BFAE710F8013BCB1AD6
:100A9000921C03E013F8015B01F8015B521EF9D5CB
:100AA000A142D8D3002070BD2DE9FC4781463220F9
:100AB00000F0C4F88DF80000332000F0BFF88DF886
:100AC0000100012005F08EFA342000F0B7F88DF80F
:100AD0000200352000F0B2F88DF80300012005F087
:100AE00081FA362000F0AAF88DF80400372000F0D3
:100AF000A5F88DF80500012005F074FA9DF80000B6
:100B00009DF8011000EB012004B2002C01DA6042D4
:100B100004B22046FFF71DFC07464FF033321E4B50
:100B2000FFF7A0FB0546FFF765FCC9F800009DF83C
:100B300002009DF8031000EB012004B2002C01DA42
:100B4000604204B22046FFF704FC05464FF0333202
:100B5000114BFFF787FB0746FFF74CFCC9F8040071
:100B60009DF804009DF8051000EB012004B2002C54
:100B700001DA604204B22046FFF7EBFB05464FF076
:100B80003332054BFFF76EFB0746FFF733FCC9F81E
:100B90000800BDE8FC87000033330F4010B502F0B9
:100BA00003F900211E2000F073F800211F2000F03F
:100BB0006FF80021202000F06BF80021212000F0C8
:100BC00067F80021222000F063F80021232000F0C4
:100BD0005FF80121242000F05BF80121252000F0BE
:100BE00057F82B21262000F053F80021272000F091
:100BF0004FF80921282000F04BF8FF21292000F0B0
:100C000047F880212A2000F043F80F212C2000F023
:100C10003FF808212D2000F03BF880212E2000F025
:100C200037F800212F2000F033F80B21312000F09D
:100C30002FF80021382000F02BF810BD10B5044625
:100C40001021114800F0F9FF44F08000002242EA30
:100C500000210E4802F088F800BF02210B4802F084
:100C600077F80028F9D000BF0121084802F070F899
:100C70000028F9D01021044800F0E1FF034802F0F9
:100C800070F8C0B210BD00000010014000300140FB
:100C900070B504460D4610210E4800F0CEFF45EA1F
:100CA00004210D4802F060F800BF02210A4802F05A
:100CB0004FF80028F9D000BF0121074802F048F89A
:100CC0000028F9D01021034800F0B9FF024802F0D3
:100CD00048F870BD001001400030014030B587B0C9
:100CE0003C483DA102683D4802F00EFF3B4B3CA250
:100CF0003EA140A002F0F8FE4B4800210291039172
:100D0000CDE9041000913C23344A019134A137A06D
:100D100001F040F9002858D14348808882B2424807
:100D20000168042006F026F94FF4FA6005F05AF93C
:100D30000CE0042005F02DFC044622463B4904202B
:100D400005F096FF012005F04DF903E037480078E3
:100D50002028EED100BF35480078202802D101209C
:100D600033490870314D002D2BD0284601F0FEFD8F
:100D7000022826D1284601F0E2FC06281CD2DFE832
:100D800000F003070B0F13172AA002F0ADFE17E0C7
:100D90002DA002F0A9FE13E032A002F0A5FE0FE0A4
:100DA00039A002F0A1FE0BE03FA002F09DFE07E09B
:100DB00046A002F099FE03E04FA002F095FE00BFAE
:100DC00000BF194801F04EF802E052A002F08CFE7C
:100DD00007B030BD50000020256400008C010020C9
:100DE00070617373776F72640000000061646D69F5
:100DF0006E000000B0D9B6C8CCECB9A45F446576EB
:100E00004C696E6B0D0A50524F49443A2025732CA1
:100E100009415549463A2025732C09444556494411
:100E20003A25730D0A000000140A0020540900201E
:100E300054000020546970733A09C1ACBDD3B3C9E2
:100E4000B9A60D0A000000005741524E3A09C1AC44
:100E5000BDD3CAA7B0DCA3BAD0ADD2E9B4EDCEF30E
:100E60000D0A00005741524E3A09C1ACBDD3CAA782
:100E7000B0DCA3BAB7C7B7A8B5C4636C69656E74B4
:100E800069640D0A000000005741524E3A09C1AC96
:100E9000BDD3CAA7B0DCA3BAB7FECEF1C6F7CAA7C6
:100EA000B0DC0D0A000000005741524E3A09C1ACB7
:100EB000BDD3CAA7B0DCA3BAD3C3BBA7C3FBBBF2E5
:100EC000C3DCC2EBB4EDCEF30D0A00005741524E25
:100ED0003A09C1ACBDD3CAA7B0DCA3BAB7C7B7A89B
:100EE000C1B4BDD328B1C8C8E7746F6B656EB7C70E
:100EF000B7A8290D0A0000004552523A09C1ACBDFD
:100F0000D3CAA7B0DCA3BACEB4D6AAB4EDCEF30D43
:100F10000A0000005741524E3A094D5154545F5057
:100F200061636B6574436F6E6E65637420466169BF
:100F30006C65640D0A0000007FB504460D46164638
:100F40000F480121002200923346CDE90121039090
:100F50002A4621460A2001F06BF980B908488088AA
:100F600082B207480168042006F004F805A002F0E8
:100F7000BBFD034800F076FF642005F033F87FBD29
:100F800090040020B7A2CBCDB3C9B9A60D0A0000CA
:100F90002DE9F0438BB00746002007900890099098
:100FA0000A900690059000260490002500248046B3
:100FB000384601F0DBFC0646F01E0D2870D2DFE853
:100FC00000F026707891ACCCB4CCC0CCCCCC07006F
:100FD00006AA05A9384601F06DFB0546B5B977A00C
:100FE000DDE9051202F080FD07AADDE9050100F048
:100FF0008BFF58B977A002F077FD089882B20420E1
:10100000079905F0B7FF07A800F02CFFA8E0774884
:1010100004AB06AA05A90090384601F09FFB0546DF
:10102000002D3CD172A0DDE9051202F05DFD0698AD
:10103000FFF7DAF881464A4674480699FFF794F8B4
:101040009DF81000012802D0022826D112E007A93D
:101050006648008801F087F958B96DA002F044FD98
:10106000089882B20420079905F084FF07A800F0D1
:10107000F9FE13E007A95D48008801F0BCF958B9F2
:1010800069A002F031FD089882B20420079905F0AA
:1010900071FF07A800F0E6FE00E000BF00BF5FE0C0
:1010A0005BE0384601F022FC10B965A002F01CFD9F
:1010B00056E0384601F038FC98B969A002F014FDFA
:1010C00007A90A2001F0BBF958B96BA002F00CFD8A
:1010D000089882B20420079905F04CFF07A800F099
:1010E000C1FE3DE041480188384601F02CFC98B92A
:1010F00067A002F0F9FC07A90A2001F058F958B9D5
:1011000069A002F0F1FC089882B20420079905F06A
:1011100031FF07A800F0A6FE22E0384601F0F5FBFB
:1011200010B968A002F0E0FC1AE0384601F058FC63
:1011300018B96AA002F0D8FC02E06FA002F0D4FC5B
:101140000EE0384601F066FC18B972A002F0CCFC43
:1011500002E077A002F0C8FC02E04FF0FF3500BFCC
:1011600000BF681C10B90BB0BDE8F0837D21069864
:10117000FFF730F80446A4B1681C90B1641C06E087
:1011800014F8012B404608F1010801A90A542078FF
:10119000302802DB20783928F2DD01A8FFF755F866
:1011A00080460F2E01D0032E05D1059805F098F941
:1011B000069805F095F900BFD5E70000636D6469F6
:1011C000643A2025732C207265713A2025730D0A2C
:1011D00000000000546970733A0953656E6420433F
:1011E0006D64526573700D0A00000000C00200209B
:1011F000746F7069633A2025730D0A7061796C6FA2
:1012000061643A2025730D0A00000000D409002013
:10121000546970733A0953656E64205075626C6945
:10122000736841636B0D0A00546970733A09536522
:101230006E64205075626C6973685265630D0A00B4
:10124000546970733A094D515454205075626C6959
:1012500073682053656E64204F4B0D0A0000000038
:10126000546970733A09526576205075626C6973DF
:10127000685265630D0A0000546970733A0953653A
:101280006E64205075626C69736852656C0D0A005B
:10129000546970733A09526576205075626C6973AF
:1012A0006852656C0D0A0000546970733A09536501
:1012B0006E64205075626C697368436F6D700D0ABF
:1012C00000000000546970733A0952657620507529
:1012D000626C697368436F6D700D0A0054697073B6
:1012E0003A094D51545420537562736372696265B3
:1012F000204F4B0D0A000000546970733A094D519C
:10130000545420537562736372696265204572722A
:101310000D0A0000546970733A094D515454205518
:101320006E537562736372696265204F4B0D0A00DC
:10133000546970733A094D51545420556E53756277
:10134000736372696265204572720D0A00000000C5
:10135000F0B585B004460D460026002001900290AD
:101360000390049006E054F8261021A002F0BCFB84
:10137000701CC6B2AE42F6DB01A82B462246002105
:101380000090142001F07FF840B9029882B2042046
:10139000019905F0EFFD01A800F064FD642004F060
:1013A00021FE042005F0F5F807463A4616490420C8
:1013B00005F05EFC1448007930B1012808D00228FD
:1013C0000AD0802810D10BE010A002F08DFB0BE0BA
:1013D00014A002F089FB07E018A002F085FB03E0EF
:1013E0001CA002F081FB00BF00BF05B0F0BD0000F3
:1013F00053756273637269626520546F7069633AF2
:101400002025730D0A00000054090020B6A9D4C499
:10141000C8B7C8CFA3AC20516F53B5C8BCB6300D08
:101420000A000000B6A9D4C4C8B7C8CFA3AC2051E5
:101430006F53B5C8BCB6310D0A000000B6A9D4C4BC
:10144000C8B7C8CFA3AC20516F53B5C8BCB63220C3
:101450000D0A0000B6A9D4C4CAA7B0DC200D0A004A
:1014600000BFFEE72DE9F04104464FF40071224829
:1014700000F0E3FB142004F0B5FD4FF400711E48AA
:1014800000F0DDFB282004F0CBFD4FF400711A487A
:1014900000F0CAFB68BB00BF4FF40071164800F0B3
:1014A000C3FB0028F8D000BF4FF40071124800F0D1
:1014B000BBFB0028F8D100F021F8207000F01EF8E6
:1014C000064600F01BF8607000F018F8074600F0C0
:1014D00015F805464FF40071074800F0B0FB20787E
:1014E0006178084430443844A84202D10120BDE864
:1014F000F0810020FBE700000010014070B50024DF
:10150000002521E000BF4FF40071114800F08CFB72
:101510000028F8D0212004F083FD4FF400710C481E
:1015200000F082FB60B1012000EB4400C4B200BFB8
:101530004FF40071064800F077FB0028F8D101E075
:101540006006040E681CC5B2082DDBDB204670BDAA
:10155000001001407047000010B5012000F05EF857
:1015600060B1012000F04EF80548006800F001006D
:1015700004490860084600780349087010BD00005F
:101580000808014010000020DD00002010B54FF4D5
:10159000806000F043F878B14FF4806000F032F8DA
:1015A0004FF48061054800F03FFB0549087008468C
:1015B000017804A002F098FA10BD00000008014074
:1015C0001D000020646F6F72203D2025640D0A000D
:1015D00010B5022000F022F860B1022000F012F8ED
:1015E0000548006800F002000449086008460078D9
:1015F0000349087010BD0000080801400C000020DD
:10160000DC0000200149086070470000140401401C
:1016100010B500F061F800F097F810BD0146002009
:101620000022074B1B6803EA0102054B14331B68B9
:101630000B4013B10AB1012000E000207047000008
:1016400000040140002123498279002A3AD00A4649
:10165000126803689A430B461A600A1D12680368F1
:101660009A430B1D1A60027911440A6803681A43F1
:101670000A60184A0832126803689A43154B083307
:101680001A601A1D126803689A43124B0C331A60D1
:101690004279102A0ED11A1F126803681A430D4BA3
:1016A00008331A601A1D126803681A43094B0C3379
:1016B0001A600DE00749427911440A6803681A4329
:1016C0000A6005E0027911440A6803689A430A60D7
:1016D00070470000000401401FB50121052001F002
:1016E00071FA4FF4E06001F011FA06208DF80C0059
:1016F00000208DF80D0006208DF80E0001208DF8D9
:101700000F0003A801F0CAF90120ADF80800282055
:101710008DF80B0002A90B4800F0B2F90021084631
:1017200000F08EF90120009000208DF804001020B8
:101730008DF8050001208DF806006846FFF782FF4E
:101740001FBD0000000801401FB50121052001F068
:1017500039FA4FF4E06001F0D9F907208DF80C0058
:1017600000208DF80D0007208DF80E0001208DF867
:101770000F0003A801F092F90220ADF8080028201C
:101780008DF80B0002A90B4800F07AF90121002026
:1017900000F056F90220009000208DF8040010207F
:1017A0008DF8050001208DF806006846FFF74AFF16
:1017B0001FBD00000008014008B501213D2001F0D7
:1017C00001FA0121994800F0E7F94020ADF8000046
:1017D00001208DF8020048208DF8030069469448E6
:1017E00000F04EF98020ADF8000001208DF80200D5
:1017F00010208DF8030069468D4800F041F94FF440
:101800000070ADF8000003208DF8020014208DF860
:1018100003006946864800F033F94FF400718448AC
:1018200000F00DFA4FF48070ADF8000001208DF843
:10183000020010208DF8030069467E4800F020F970
:101840004FF480717B4800F0FAF94FF40070ADF866
:10185000000001208DF8020010208DF80300694679
:10186000744800F00DF94FF40071724800F0E7F988
:101870001020ADF8000001208DF8020010208DF836
:10188000030069466B4800F0FBF81021694800F03E
:10189000D6F92020ADF8000001208DF802001020BC
:1018A0008DF803006946634800F0EAF8202161489A
:1018B00000F0C5F94FF40050ADF8000001208DF89C
:1018C000020010208DF803006946594800F0D8F84E
:1018D0004FF40051564800F0B2F94FF48040ADF893
:1018E000000001208DF8020010208DF803006946E9
:1018F0004F4800F0C5F84FF480414D4800F09FF983
:101900000420ADF8000001208DF8020010208DF8B1
:1019100003006946484800F0B3F80421464800F047
:101920008EF90820ADF8000001208DF8020010208B
:101930008DF8030069463F4800F0A2F808213D48B1
:1019400000F07DF94FF40060ADF8000001208DF843
:10195000020010208DF803006946354800F090F829
:101960004FF40061324800F06AF94FF48050ADF84E
:10197000000001208DF8020010208DF80300694658
:101980002B4800F07DF84FF48051294800F057F9BA
:101990004FF40040ADF8000001208DF80200102047
:1019A0008DF803006946254800F06AF84FF40041BD
:1019B000224800F044F94FF48060ADF800000120A7
:1019C0008DF8020010208DF803006946184800F0D9
:1019D00057F84FF48061164800F031F94FF4006079
:1019E000ADF8000001208DF8020010208DF80300F2
:1019F0006946124800F044F84FF400610F4800F0C7
:101A00001EF94FF48050ADF8000001208DF802005F
:101A100010208DF803006946084800F031F84FF4B3
:101A20008051064800F00BF908BD000000023000AC
:101A300000100140000C014000140140000801406A
:101A400030B500228B071C0F0F2303FA04F20B4B57
:101A50008C1053F824309343084C8D1044F82530F3
:101A600023468C1053F824308C07240F00FA04F41A
:101A70002343024C8D1044F8253030BD080001404E
:101A80002DE9F04102460025002600200023002415
:101A9000002791F803C00CF00F0591F803C00CF07B
:101AA000100CBCF1000F03D091F802C04CEA050500
:101AB00091F800C0BCF1000F31D0146800202BE079
:101AC0004FF0010C0CFA00F3B1F800C00CEA030669
:101AD0009E4220D183004FF00F0C0CFA03F7BC4359
:101AE00005FA03FC4CEA040491F803C0BCF1280F8A
:101AF00006D14FF0010C0CFA00FCC2F814C00AE049
:101B000091F803C0BCF1480F05D14FF0010C0CFA5D
:101B100000FCC2F810C0401C0828D1D31460B1F8F2
:101B200000C0BCF1FF0F34DD546800202EE000F14E
:101B3000080C4FF0010808FA0CF3B1F800C00CEAE9
:101B400003069E4221D183004FF00F0C0CFA03F7DD
:101B5000BC4305FA03FC4CEA040491F803C0BCF151
:101B6000280F05D100F1080C08FA0CF8C2F814800F
:101B700091F803C0BCF1480F07D100F1080C4FF0F9
:101B8000010808FA0CF8C2F81080401C0828CED3CF
:101B90005460BDE8F0810000F0B50A46002300243F
:101BA0000021002500F00046B6F1004F02D11D4E85
:101BB000F16901E01B4E7168C0F3034583B200F484
:101BC0004016B6F5401F08D121F07061154E7668B9
:101BD00026F07066134F7E6012E000F48016B6F5B2
:101BE000801F06D1032606FA05F4A14341F0706177
:101BF00006E0460D360103FA06F6B14341F0706186
:101C000022B1460D360103FA06F6314300F00046D4
:101C1000B6F1004F02D1034EF16101E0014E716057
:101C2000F0BD0000000001400246002093680B4018
:101C30000BB1012000E00020704741617047016155
:101C400070474FF6FF710180022181700421C1703D
:101C50007047000010B50F4800680F4908600D4834
:101C6000001D006848600B4808300068886008461E
:101C700000684008496800EB91000749896800EB5B
:101C8000D100064908600846016805A001F02CFF54
:101C900010BD0000E8F7FF1F78040020500000206E
:101CA000CEA8D2BB6964A3BA25640D0A0000000067
:101CB00000BFFEE710B5002001F0B0FE10BD10B56A
:101CC000012001F0ABFE10BD70B504460025FFF702
:101CD000F1FFC4F3074000F010F8C4F3072000F050
:101CE0000CF804F0F80000F008F8002000F005F807
:101CF0000546FFF7E4FF284670BD10B504462046B0
:101D000000F0FEFF10BD70B504460D46FFF7D2FF90
:101D1000C4F30740FFF7F1FFC4F30720FFF7EDFF1F
:101D200004F0F801091DC8B2FFF7E7FF2846FFF7E6
:101D3000E4FFFFF7C4FF70BD4CF6CC4001490860DA
:101D4000704700000030004010B500F013F810BDDF
:101D500070B505460C4645F2555000F01FF8284670
:101D600000F010F8204600F013F800F003F8FFF739
:101D7000E3FF70BD4AF6AA200149086070470000E1
:101D800000300040014948607047000000300040CA
:101D90000149886070470000003000400149086038
:101DA000704700000030004010B54FF47A7004F026
:101DB00019F940F6A6610420FFF7CAFF01F02EF9D9
:101DC00001F070F901F084F901F0D6F901F0EAF9B7
:101DD00001F064FAFFF7F0FC04F016FD01F020FDBD
:101DE00001F02EFE03F040FEFEF7D8FEFFF710FCD8
:101DF00001F0DCFB00F096FEFFF72CFF00F06CFF1B
:101E000006F078FA06F0A6F805F0DCFE04F08AFE8B
:101E10000B490C4806F0D2F90BA001F065FE012138
:101E2000084600F0AFFE0121880701F052FA0121B7
:101E3000042000F0A7FE0121094801F04AFA10BD74
:101E40003D01002035010020573535303020496EE6
:101E5000697420436F6D706C657465210D0A000014
:101E60000008004010B50446207B012802D12068FC
:101E700004F036FB002020606060A060207310BD7D
:101E80000246002301230DE002F07F000870D20912
:101E90002AB1087840F080000870491C01E018461B
:101EA00070475B1C042BEFDD4FF0FF30F8E770B597
:101EB00004460E460025206898B90120207330465C
:101EC00004F008FD20602068E0B100206060A6609A
:101ED00003E00020216848556D1CA068A842F8D88E
:101EE00010E00220207303E00020216848556D1C9B
:101EF000A068A842F8D800206060A068B04201D273
:101F00000020206070BD00002DE9FF5F07460D46F0
:101F100090463846FEF768F986B22846FEF764F91F
:101F20001FFA80FA4FF00009B01D04F0D3FC0446FC
:101F30001CB9012004B0BDE8F09FB11D2046FEF79A
:101F40002CF912A0016821608088A08032463946B1
:101F50002046FEF75DF92846FEF746F98346012044
:101F6000002100915B462A46CDE9020801912146F5
:101F70000A2000F05DF910B94FF0000901E04FF0C0
:101F80000109204604F0ACFA4846D3E72463727393
:101F9000702F00002DE9FF4F83B082468B4691469B
:101FA000159C0025002002900F2701904846FEF75F
:101FB0001BF98046B9F1000F03D1012007B0BDE83D
:101FC000F08F08F10200384487B2109808B145F04C
:101FD0000205129878B145F004051298FEF704F94D
:101FE000C0B202901398FEF7FFF801460298001D58
:101FF0000844384487B2119820B1012804D002283F
:1020000008D104E000BF07E045F00C0504E045F00E
:10201000140501E00220D1E700BF149808B145F093
:102020002405BAF1000F02D0BBF1000F01D103204B
:10203000C4E745F0C0055046FEF7D6F806465846B8
:10204000FEF7D2F83044001D384487B239462046A6
:10205000FFF72DFF206808B90420AFE73946206854
:10206000FEF79BF810216268501C60602068815464
:10207000D4E90023D118781FFFF702FF01900198DF
:10208000002804DA2046FFF7EDFE052096E7616898
:1020900001980844606000216268501C60602068FC
:1020A000815404216268501C6060206881544D2175
:1020B0006268501C60602068815451216268501C25
:1020C00060602068815454216268501C6060206800
:1020D00081546268501C60602068815404216268E9
:1020E000501C6060206881546168481C60602068F2
:1020F00045540698010A6268501C6060206881544B
:102100000698C1B26268501C606020688154C8F3B0
:1021100007216268501C6060206881546268501C0E
:102120006060206800F80280D4E9001288184246F6
:102130004946FEF76DF860684044606005F00400B1
:10214000B8B30026139808B938A013901298FEF778
:102150004BF886B2310A6268501C60602068815476
:102160006268501C606020688654D4E900128818A8
:1021700032461299FEF74CF860683044606013985C
:10218000FEF732F886B2310A6268501C606020683F
:1021900081546268501C606020688654D4E9001243
:1021A000881832461399FEF733F86068304460604F
:1021B00000BF05F08000C8B15046FEF715F886B2A2
:1021C000310A6268501C6060206881546268501C4B
:1021D000606020688654D4E900128818324651465F
:1021E000FEF716F860683044606000BF05F04000FC
:1021F000C8B15846FDF7F8FF86B2310A6268501C34
:102200006060206881546268501C60602068865459
:10221000D4E90012881832465946FDF7F9FF606884
:102220003044606000BF0020C8E6000000000000ED
:102230002DE9F84F8046894693469A460D9C002723
:10224000002500200090002660602073A060B8F197
:10225000000F02D10120BDE8F88F00250AE019F82F
:102260000500232803D019F805002B2801D10220EE
:10227000F1E76D1C19F805000028F0D146F0300692
:102280000B9808B146F0010605EB0A00871C0A9876
:1022900020B1012804D002280AD105E000BF09E0DE
:1022A00046F00206BF1C05E046F00406BF1C01E034
:1022B0000320D0E700BFF91C2046FFF7F8FD206897
:1022C00008B90420C7E7F91C2068FDF766FF6168BC
:1022D000481C606020684654D4E9000281183846E2
:1022E000FFF7CEFD00900098002804DA2046FFF7A3
:1022F000B9FD0520AFE76168009808446060C5F348
:1023000007216268501C6060206881546268501C1C
:10231000606020688554D4E9001288182A4649462E
:10232000FDF776FF6068284460600A9860B14FEA64
:1023300018216268501C6060206881546268501CDB
:102340006060206800F80280BBF1000F09D0D4E97A
:102350000012881852465946FDF75AFF60685044EB
:102360006060002077E770B505460C4604212046E2
:10237000FFF79DFD206808B9012070BD62216268E9
:10238000501C60602068815402216268501C6060AB
:102390002068815429126268501C60602068815452
:1023A0006268501C6060206885540020E5E770B5C5
:1023B00005460C4604212046FFF779FD206808B940
:1023C000012070BD62216268501C606020688154E9
:1023D00002216268501C6060206881542912626882
:1023E000501C6060206881546268501C60602068E6
:1023F00085540020E5E770B505460C4604212046CB
:10240000FFF755FD206808B9012070BD50216268B2
:10241000501C60602068815402216268501C60601A
:102420002068815429126268501C606020688154C1
:102430006268501C6060206885540020E5E770B534
:1024400005460C4604212046FFF731FD206808B9F7
:10245000012070BD62216268501C60602068815458
:1024600002216268501C60602068815429126268F1
:10247000501C6060206881546268501C6060206855
:1024800085540020E5E72DE9FF5F80461746994611
:102490000E9C0026B246B3460025B8F1000F03D1CA
:1024A000012004B0BDE8F09F0BE057F8250008B903
:1024B0000220F6E757F82500FDF796FE0644681C53
:1024C000C5B24D45F1DB09EB4900801C00EB060A63
:1024D0000AF105012046FFF7EAFC206808B903204D
:1024E000DFE782216268501C606020688154D4E973
:1024F000000281185046FFF7C3FC8346BBF1000F72
:1025000004DA2046FFF7AEFC0420CAE760685844AE
:1025100060604FEA18216268501C60602068815436
:102520006268501C6060206800F80280002524E08A
:1025300057F82500FDF758FE0646C6F307216268E6
:10254000501C6060206881546268501C6060206884
:102550008654D4E90023D01857F825103246FDF7E9
:1025600057FE6068304460600198C1B26268501CD8
:10257000606020688154681CC5B24D45D8DB0020DE
:102580008FE72DE9F05F80460F4691461C460026F6
:10259000B246B3460025B8F1000F02D10120BDE8D4
:1025A000F09F0BE057F8250008B90220F7E757F82D
:1025B0002500FDF719FE0644681CC5B24D45F1DB48
:1025C000022000EB490000EB060A0AF10501204653
:1025D000FFF76DFC206808B90320E0E7A2216268DC
:1025E000501C606020688154D4E900028118504674
:1025F000FFF746FC8346BBF1000F04DA2046FFF7E5
:1026000031FC0420CBE76068584460604FEA182131
:102610006268501C6060206881546268501C606071
:10262000206800F8028000251DE057F82500FDF71E
:10263000DBFD0646C6F307216268501C6060206817
:1026400081546268501C606020688654D4E900237D
:10265000D01857F825103246FDF7DAFD606830448F
:102660006060681CC5B24D45DFDB002097E7F0B520
:1026700004460D462646012300201060002114E088
:10268000775C07F07F07106807FB03001060705C41
:1026900000F0800008B9481CF0BDDB01B3F5001F55
:1026A00002D36FF00100F7E7491CA942E8DB4FF0C5
:1026B000FF30F1E72DE9F84307460C4615462F2178
:1026C000F81CFDF787FD064600200090804616B9ED
:1026D0000120BDE8F883761C6A460421781CFFF7C8
:1026E000C6FF252004F0F6F82060206808B9022013
:1026F000EFE725212068FDF750FD242231462068B0
:10270000FDF732FD243600982C381FFA80F808F1C6
:10271000010004F0DFF82860286820B9206803F081
:10272000DFFE0320D5E708F101012868FDF735FD3C
:10273000424631462868FDF717FD0020C9E70146EB
:102740004878022801D001207047887810B1887835
:10275000012801D1C878F7E7FF20F5E72DE9FC5FF4
:1027600081460D4616469A4699F8000000F00F0B78
:10277000002001900BF0080000904FF000080024AA
:10278000CBF341008AF8000001AA042109F10100FD
:10279000FFF76DFF4844471C0198022802D30BF055
:1027A000010010B1FF20BDE8FC9F7878397840EA3D
:1027B0000124A01C0199814201D2FF20F3E749A125
:1027C000B81CFDF7F5FC08B10F20ECE79AF8000003
:1027D00020B1012833D0022872D131E0009808B12D
:1027E000FF20E0E7601C04F075F82860286808B94D
:1027F000FF20D8E7611C2868FDF7CFFC2246B91CF2
:102800002868FDF7B1FC0198801EA0EB040808F1D0
:10281000010004F05FF83060306820B9286803F0E8
:102820005FFEFF20BFE708F101013068FDF7B5FC4E
:10283000BA1C111942463068FDF796FC42E000BF11
:10284000A01C0199884201D9FF20ACE7E01C395C4B
:10285000A01C385C41EA00210C9801800C9808B952
:10286000FF20A0E7601C04F035F82860286808B94C
:10287000FF2098E7611C2868FDF78FFC2246B91CF1
:102880002868FDF771FC0198001FA0EB040808F10F
:10289000010004F01FF83060306820B9286803F0A8
:1028A0001FFEFF207FE708F101013068FDF775FC8E
:1028B0003A1D111942463068FDF756FC02E0FFE769
:1028C000FF2070E700BF2B212846FDF783FC20B9CD
:1028D00023212846FDF77EFC08B1FF2063E7002096
:1028E00061E70000246372657100000001464878CA
:1028F000022801D001207047887820B9C8780A28BA
:1029000001D10020F7E70120F5E7014648780228C9
:1029100001D001207047887820B9C8780A2801D1F1
:102920000020F7E70120F5E701464878022801D0AA
:1029300001207047887820B9C8780A2801D1002082
:10294000F7E70120F5E702465078022801D0012080
:1029500070479078B0EB112F05D1D078CBB2984268
:1029600001D10020F4E70120F2E70000F8B50446A9
:10297000FF2720780511012D01DB0E2D01DD3846E2
:10298000F8BD032D24D1002000906A460421601C6C
:10299000FFF76DFE2044461C0098022803D32078E0
:1029A00000F0010008B1FF20EAE77078317840EAD2
:1029B0000120801C0099884201D9FF20E0E706A190
:1029C000B01CFDF7F5FB08B10F2700E0032700E07E
:1029D0002F463846D4E7000024637265710000007A
:1029E0000146FF208A78A2B9CA78142A11D10A793F
:1029F00032B1012A05D0022A04D0802A06D103E090
:102A000000BF00BF002003E0012001E0022000BF62
:102A100000BF7047014601208A781AB9CA781E2A79
:102A200000D10020704700007FB505460E4600200B
:102A300000900190029003906B46324629460A208E
:102A4000FFF79FFDD0B9019882B20420009904F0ED
:102A500091FA642003F0C6FA042003F09AFD0446BC
:102A600022460749042004F003F9054800780B21A9
:102A7000B1EB201F02D103A001F036F87FBD0000AA
:102A800054090020B3C9B9A6C8A1CFFBB6A9D4C4C4
:102A90000D0A000000BFFEE77047000070B500217E
:102AA00000230F22C47804B3154C246804F4E064B6
:102AB000C4F5E064210AC1F10403CA40447804FA71
:102AC00003F184781440214309010E4C0678A15586
:102AD000047804F01F050124AC4005786D11AD00A9
:102AE00005F1E025C5F8004109E0047804F01F0570
:102AF0000124AC40044D0678761145F8264070BD9F
:102B00000CED00E000E400E080E100E00249014358
:102B1000024A1160704700000000FA050CED00E069
:102B20007047000010B51448006800F00200022849
:102B300005D01148006800F0020001280DD14FF4C3
:102B400000510E48FFF779F84FF480410B48FFF72A
:102B500076F800200A4908700CE04FF4005107484D
:102B6000FFF76DF84FF480410448FFF766F8012045
:102B70000349087010BD0000080801400010014022
:102B80005500002029B1064AD2690243044BDA619C
:102B900004E0034AD2698243014BDA6170470000C6
:102BA0000010024029B1064A12690243044B1A611F
:102BB00004E0034A12698243014B1A617047000026
:102BC0000010024029B1064A92690243044B9A61FF
:102BD00004E0034A92698243014B9A617047000006
:102BE0000010024029B1064AD2680243044BDA6061
:102BF00004E0034AD2688243014BDA607047000068
:102C00000010024030B500210022002400232D4D89
:102C10006D6805F00C0121B1042905D0082923D1E4
:102C200005E0294D056022E0274D05601FE0254D98
:102C30006D6805F47012234D6D6805F4803402252B
:102C400005EB92421CB9214D554305600BE01D4D2B
:102C50006D6805F400351DB11C4D5543056002E05B
:102C6000194D5543056002E0174D056000BF00BFD8
:102C7000144D6D6805F0F0010909154D6B5C056890
:102C8000DD4045600F4D6D6805F4E061090A104DA7
:102C90006B5C4568DD4085600A4D6D6805F46051E8
:102CA000C90A0B4D6B5C4568DD40C560054D6D681C
:102CB00005F44041890B074D6B5CC568B5FBF3F526
:102CC000056130BD0010024000127A0000093D008D
:102CD000F50000200501002010B580210748FEF70F
:102CE000ACFF022003F09CF980210448FEF7A7FF07
:102CF0004FF4C86003F076F910BD000000100140E9
:102D000010B5044600BF02210A4800F021F800284F
:102D1000F9D02146074800F027F800BF01210548F7
:102D200000F016F80028F9D0024800F01AF8C0B2F6
:102D300010BD00000038004021B1028842F040027E
:102D4000028004E002884FF6BF731A400280704789
:102D50000246002013890B400BB1012000E0002047
:102D600070470146888970478181704710B50022FD
:102D7000028802F441520B884C8823438C882343F9
:102D8000CC8823430C8923434C8923438C892343D8
:102D9000CC8923431A430280838B4FF2FF74234074
:102DA00083830B8A038210BD00B587B001211D20EB
:102DB000FFF708FF01210803FFF704FF06A8FEF74D
:102DC00040FF1020ADF818008DF81B0003208DF88F
:102DD0001A0006A91E48FEF753FE10211C48FEF7F4
:102DE0002EFF06A8FEF72DFFE020ADF818001820F2
:102DF0008DF81B0003208DF81A0006A91548FEF770
:102E00003FFE0020ADF804004FF48270ADF80600DC
:102E10004FF40060ADF808000220ADF80A00012070
:102E2000ADF80C004002ADF80E003820ADF81000EF
:102E30000020ADF812000720ADF8140001A90648E3
:102E4000FFF794FF01210448FFF776FF07B000BDAC
:102E5000001001400008014000300140704710B5EB
:102E600000F002F810BD00000CB5002001900090A9
:102E70003348006840F480303149086000BF304872
:102E8000006800F4003000900198401C0190009808
:102E900018B90198B0F5A06FF1D12948006800F485
:102EA000003010B10120009001E000200090009857
:102EB000012843D12348006840F0100021490860F0
:102EC0000846006820F0030008600846006840F0EB
:102ED000020008601A48406819494860084640687E
:102EE00048600846406840F4806048600846406892
:102EF00020F47C1048600846406840F4E8104860C0
:102F00000846006840F08070086000BF0C48006808
:102F100000F000700028F9D00948406820F0030054
:102F2000074948600846406840F00200486000BF1A
:102F30000348406800F00C000828F9D10CBD0000DF
:102F40000010024000200240012080F3138800BFDF
:102F500000BF0748006800F4E06006490843001D10
:102F600003490860BFF34F8F00BF00BFFEE70000BA
:102F70000CED00E00000FA057047000010B51348A2
:102F8000006840F001001149086008464068104997
:102F900008400E494860084600680E4908400B4941
:102FA00008600846006820F48020086008464068F1
:102FB00020F4FE0048604FF41F008860FFF74FFFC9
:102FC0004FF000600449086010BD0000001002408E
:102FD0000000FFF8FFFFF6FE08ED00E04FF0E021F3
:102FE000096921F004014FF0E0221161C21700EBE2
:102FF0005272C2F3C702074B1A701946097801EBE7
:103000004102C2EBC1114FF6FF7202EAC101024A4E
:103010001180704724000020260000200EB50121F9
:103020000846FFF7AFFD4FF0804000F05FF96420E5
:10303000ADF804004720ADF800000020ADF8020014
:1030400069464FF0804000F05FFA0121880700F0E8
:103050003AF901221146900700F04DFA0121880744
:1030600000F037F900210120FFF78CFD0EBD0000B4
:1030700010B50121880700F02DFA78B101218807E9
:1030800000F024F9002407E0054850F82400401C13
:10309000034941F82400641C162CF5DB10BD000028
:1030A0003C03002008B54FF4E060FFF72FFD1C2023
:1030B0008DF8000000208DF8010004208DF802003A
:1030C00001208DF803006846FFF7E8FC08BD00000A
:1030D0000EB501210220FFF755FD114800F006F959
:1030E0006420ADF804004720ADF800000020ADF8E2
:1030F000020069460A4800F007FA0121084800F07A
:10310000E2F801221146064800F0F5F901210448D1
:1031100000F0DFF800210220FFF734FD0EBD0000B3
:103120000004004010B50121104800F0D3F9E0B1CF
:1031300001210E4800F0CAF80D480068401C0C49F7
:103140000860084600684CF25031884207DB0948A5
:103150000068401C074908600020054908600548D0
:103160000068022801D9FFF7EFFE10BD00040040FF
:10317000140000201800002008B54FF4E060FFF7AD
:10318000C5FC1D208DF8000000208DF801000B20EB
:103190008DF8020001208DF803006846FFF77EFCE1
:1031A00008BD00000EB501210420FFF7EBFC11481B
:1031B00000F09CF86420ADF804004720ADF8000052
:1031C0000020ADF8020069460A4800F09DF901218F
:1031D000084800F078F801221146064800F08BF903
:1031E0000121044800F075F800210420FFF7CAFC13
:1031F0000EBD00000008004010B501211F4800F07E
:1032000069F9002839D001211C4800F05FF81C48FA
:103210000078012804D11B484068401C19494860C7
:1032200019480078012804D116488068401C1549C7
:10323000886016480078012804D11248C068401CF4
:103240001049C86012480078012804D10D4800696F
:10325000401C0C4908610F480078012804D1094836
:103260004069401C074948610B480078012804D197
:1032700004488069401C0349886110BD0008004073
:103280002800002094030020290000202A000020AC
:103290002B0000202C0000202D00002008B54FF44A
:1032A000E060FFF733FC1E208DF8000000208DF851
:1032B00001000C208DF8020001208DF80300684603
:1032C000FFF7ECFB08BDCA4302827047CA43028283
:1032D000704721B1028842F00102028004E00288B6
:1032E0004FF6FE731A4002807047000010B5044686
:1032F0006848844208D10121C014FFF773FC002103
:10330000E014FFF76FFCC4E0B4F1804F08D1012155
:103310000846FFF747FC00210120FFF743FCB8E017
:103320005D48844208D101210220FFF73BFC0021C7
:103330000220FFF737FCACE05848844208D1012155
:103340000420FFF72FFC00210420FFF72BFCA0E056
:103350005348844208D101210820FFF723FC0021B3
:103360000820FFF71FFC94E04E48844208D1012159
:103370001020FFF717FC00211020FFF713FC88E056
:103380004948844208D101212020FFF70BFC00218D
:103390002020FFF707FC7CE04448844208D101214B
:1033A0004014FFF71FFC00216014FFF71BFC70E0C6
:1033B0003F48844209D10121C804FFF713FC0021D2
:1033C0004FF40020FFF70EFC63E03A48844209D135
:1033D00001210805FFF706FC00214FF48010FFF7DC
:1033E00001FC56E03448844209D101214805FFF729
:1033F000F9FB00214FF40010FFF7F4FB49E02F48E0
:10340000844208D101214020FFF7CCFB002140205D
:10341000FFF7C8FB3DE02A48844208D10121802003
:10342000FFF7C0FB00218020FFF7BCFB31E02548FF
:10343000844208D101218015FFF7B4FB0021A015BB
:10344000FFF7B0FB25E02048844209D101210804A0
:10345000FFF7C8FB00214FF48030FFF7C3FB18E0F3
:103460001A48844209D101214804FFF7BBFB00211F
:103470004FF40030FFF7B6FB0BE01548844208D14B
:1034800001218804FFF7AEFB00214FF48020FFF7F5
:10349000A9FB10BD002C01400004004000080040C2
:1034A000000C0040001000400014004000340140B7
:1034B000004C014000500140005401400018004001
:1034C000001C00400020004000400140004401403A
:1034D0000048014030B50246002000230024158A30
:1034E00005EA0103958905EA010413B10CB1012035
:1034F00000E0002030BD1AB183890B43838102E0D4
:1035000083898B4383817047002202881D4B984238
:103510000ED01D4B98420BD0B0F1804F08D01B4B02
:10352000984205D01A4B984202D01A4B984204D1C7
:103530004FF68F731A404B881A43174B984207D0A7
:10354000164B984204D04FF6FF431A40CB881A43DB
:1035500002808B8883850B8803850A4B98420BD0A9
:10356000094B984208D00E4B984205D00D4B98421B
:1035700002D00D4B984201D10B7A0386012383823E
:1035800070470000002C014000340140000400405E
:1035900000080040000C00400010004000140040F3
:1035A00000400140004401400048014000B585B0A2
:1035B00001210420FFF706FB01214804FFF7E2FA8E
:1035C0000420ADF8100018208DF8130003208DF8AA
:1035D000120004A91748FEF753FA0820ADF81000AE
:1035E00004208DF8130004A91248FEF749FA4FF49D
:1035F000E13000900020ADF80400ADF80600ADF811
:103600000800ADF80C000C20ADF80A00012240F2D1
:103610002551094800F065F96946074800F086F928
:103620000121054800F01AF94021034800F00DF986
:1036300005B000BD000801400044004070B5002402
:10364000002508216B4800F015F938B1694800F0F1
:10365000D9F9C5B20821674800F0F7F80421654898
:1036600000F008F938B1634800F0CCF9C5B2042184
:10367000604800F0EAF802215E4800F0FBF838B13B
:103680005C4800F0BFF9C5B202215A4800F0DDF8ED
:103690000121584800F0EEF838B1564800F0B2F970
:1036A000C5B20121534800F0D0F840F225515148ED
:1036B00000F0EDF800287DD04E4800F0A3F9C4B228
:1036C0004D48007800B170BD4C48007880B94C4836
:1036D000007868B9242C0BD148490878411C474A26
:1036E0001170484941F82040012045490870EAE737
:1036F000424800780A2814DA41480078012810D19D
:103700003E480078092804DA3F48007820443E49C2
:1037100008703A490878411C384A1170394941F813
:103720002040364800780A285DD13648006835497F
:10373000496808443349896808443249C9680844DB
:103740003049096908442F49496908442D49896964
:1037500008442C49C96908442A49096A08442A4985
:1037600008702848406A0978884235D10021012034
:10377000FFF708FA2548007860B924480078401C13
:103780002249087001210220FFF7FCF9012120489D
:10379000FFF79FFD4FF400711E48FEF750FA4FF4FB
:1037A00080711C48FEF749FA20211A48FEF747FAB3
:1037B000102100E01CE01748FEF73FFA01200E49F7
:1037C00008701549087000200F490870012013493E
:1037D000087000200949087000200849087008494D
:1037E00008700949087040F22551024800F02DF890
:1037F00000BF68E7004400401E00002020000020B9
:1038000021000020FC0200202200002023000020D4
:1038100000040040000C0140970000201F00002021
:1038200008B54FF4E060FFF771F926208DF800002D
:1038300000208DF801000A208DF8020001208DF88B
:1038400003006846FFF72AF908BD01F40072B2F5DB
:10385000007F00D100BFCA430280704721B1828936
:1038600042F40052828104E082894DF6FF731A40CF
:103870008281704702460020B1F5007F00D100BF71
:1038800013880B400BB1012000E00020704770B599
:103890000246002400230025002040F66A16B142AB
:1038A00000D100BFC1F3421501F01F03012606FA43
:1038B00003F3012D02D19689334006E0022D02D197
:1038C000168A334001E0968A33400C12012606FA2C
:1038D00004F41688344013B10CB1012000E000203C
:1038E00070BDF0B50346002400260025002040F6F8
:1038F0006A17B94200D100BF1846C1F3421401F063
:103900001F06012707FA06F5012C01D10C3004E04F
:10391000022C01D1103000E014301AB107682F4397
:10392000076002E00768AF430760F0BD2DE9F0478C
:1039300086B005460E460024A24600BFA1460027D9
:10394000B08900B100BF2F462C8A4CF6FF700440AE
:10395000F08804432C82AC894EF6F3100440B08802
:1039600031890843718908430443AC81AC8A4FF61E
:10397000FF400440B0890443AC8201A8FFF742F93C
:103980001F48874202D1DDF810A001E0DDF80CA04D
:10399000A88900F4004040B10AEBCA0000EB0A100D
:1039A00031684900B0FBF1F807E00AEBCA0000EB10
:1039B0000A1031688900B0FBF1F86420B8FBF0F020
:1039C00004012009642101FB1089A88900F400404A
:1039D00040B1322000EBC900B0FBF1F000F007006D
:1039E000044308E0322000EB09106421B0FBF1F041
:1039F00000F00F0004432C8106B0BDE8F087000002
:103A00000038014001468888C0F308007047C1F3C0
:103A100008028280704700BFFEE7000010B5044630
:103A20002CB94FF480510548FEF707F905E0012C49
:103A300003D121030148FEF702F910BD000C01403B
:103A400000B587B001218803FFF79CF80121092008
:103A5000FFF7B8F84FF46040ADF8040003208DF88C
:103A6000060018208DF8070001A91D48FEF708F888
:103A70004FF48050ADF8040003208DF806001020AC
:103A80008DF8070001A91648FDF7FAFF4FF48051A1
:103A90001348FEF7D4F80020ADF808004FF4827008
:103AA000ADF80A000020ADF80C00ADF80E00ADF83E
:103AB00010004FF40070ADF812000820ADF81400AB
:103AC0000020ADF816000720ADF8180002A905483F
:103AD000FFF74CF901210348FFF72EF907B000BDAD
:103AE000000C0140003800400FB4054B10B503A98D
:103AF000044A029800F0E2F810BC5DF814FB0000E4
:103B0000BD640008EC0200200FB4084B10B504A9F6
:103B100002AA039800F0D2F8044602A9002000F09F
:103B200064FC204610BC5DF814FB0000EB43000869
:103B300000487047F802002002E008C8121F08C1C0
:103B4000002AFAD170477047002001E001C1121F1E
:103B5000002AFBD1704700002DE9FF5FDDE902205C
:103B6000010DDDF838B0024318D044F61050A1F230
:103B7000FF3141430D140F98012820D0A5EB0B0015
:103B8000401C5FEA000A4FF00004474EDFF81C912A
:103B9000A046504616D5CAF1000728E00F98012428
:103BA00043A2012808D0002100980F9BC0E9002102
:103BB000C0E90243BDE8FF9F6FEA0B01F4E7CBF1D8
:103BC0000000DEE7074612E0F80707D0224633463A
:103BD00040464946FCF746FB804689462246334626
:103BE00010461946FCF73EFB04460E467F10002F98
:103BF000EAD1DDE90201BAF1000F42464B4602DA92
:103C0000FCF730FB01E0FCF7DFFD04460E46002226
:103C1000284BFCF761FE03D84FF0FF30014607E068
:103C20000022254B20463146FCF727FDFCF73BFEE2
:103C3000102409E0002C0ADB0A220023FCF720FCF8
:103C4000019B30321A55641E50EA0102F2D1641C05
:103C5000019AC4F1110314440F9A012A03D00122DE
:103C600008430DD10AE0084304D000204FF0110BA7
:103C70000F9080E7A3EB0B056D1E0DE05B4504DDA7
:103C80004FF0000205F1010504E003DA4FF00002F5
:103C9000A5F10105002AECD000980F99C0E9023186
:103CA000C0E9004586E70000000024400000F03F26
:103CB000300000000000F0430000E03F2DE9FF4F1E
:103CC00095B09B468946064600250FE2252877D108
:103CD00000242746F84A0121059400E0044316F821
:103CE000013F203B01FA03F01042F7D130782A2837
:103CF00011D06FF02F033078A0F13002092A16D8C6
:103D0000059A44F0020402EB820203EB42021044E3
:103D1000761C0590EFE759F8042B0592002A03DA88
:103D2000504244F40054059044F00204761C30786C
:103D30002E2816D116F8010F44F004042A280DD0BD
:103D40006FF02F023078A0F13003092B09D807EB70
:103D5000870302EB4303C718761CF3E759F8047B8B
:103D6000761C30786C280FD006DC4C2817D06828D9
:103D70000DD06A2814D104E0742810D07A280FD10D
:103D80000DE044F400140AE044F4801401E044F42B
:103D900040147278824202D104F58014761C761C9D
:103DA000307866280BD013DC582877D009DC00283F
:103DB00075D04528F6D04628F4D047281AD19DE181
:103DC00018E0632835D0642879D0652812D195E1B0
:103DD000702873D008DC6728F1D069286FD06E286E
:103DE0000DD06F2806D1B5E073282CD0752875D07A
:103DF000782874D05A46179990476D1C75E1C4F322
:103E00000250022809D003280DD0D9F80010042848
:103E10000DD00D6009F1040967E1D9F80010EA1727
:103E2000C1E90052F6E7D9F800100D80F2E70D70F5
:103E3000F0E719F8041B8DF8001000208DF8010040
:103E4000EA46012003E059F804AB4FF0FF30610768
:103E50004FF0000102D40DE008F101018846B9429B
:103E60000FDA8045F8DB1AF808100029F4D108E0D1
:103E700008F1010188468142FADB1AF8081000298E
:103E8000F6D105985B46A0EB080721463846179AFD
:103E900000F094FA284400EB080507E04DE029E122
:103EA0000DE01AF8010B5A4617999047B8F101082E
:103EB000F7D25B4621463846179A13E142E00A22C0
:103EC0000092C4F302524FF0000A022A08D059F8B7
:103ED00004CB032A4FEAEC710AD00DE029E02AE076
:103EE00009F1070121F00702F2E802C1914609E059
:103EF0000FFA8CFC4FEAEC71042A03D14FFA8CFCC8
:103F00004FEAEC71002907DA0A460021DCF1000CC7
:103F100061EB02012D2202E0220504D52B228DF84F
:103F20000420012203E0E20701D02022F7E79046B7
:103F300059E00A2102E010220DE010214FF0000AA2
:103F400000910BE010224FF0000A44F0040408270F
:103F5000009203E008224FF0000A0092C4F30252DC
:103F6000022A05D059F804CB0021032A08D009E021
:103F700009F1070121F00702F2E802C1914605E0CC
:103F80001FFA8CFC042A01D10CF0FF0C4FF0000842
:103F9000220728D5702806D0009B83F0100353EA2F
:103FA0000A0305D00EE040228DF80420012208E02B
:103FB0005CEA010206D030228DF804208DF805005D
:103FC00002229046009B83F0080353EA0A030AD1B9
:103FD0005CEA010201D1620705D530228DF8042088
:103FE0004FF001087F1E582804D034A003900EA87B
:103FF00002900DE036A0F9E753466046009AFCF7C0
:104000003FFA84460398825C0298401E0290027038
:104010005CEA0100F0D1029806A9081A00F1200A12
:10402000600702D524F4803400E00127574502DD03
:10403000A7EB0A0000E0002000EB0A0100900598C1
:104040004144401A0590E00306D45B462146179A86
:10405000059800F0B3F90544002706E001A85A4688
:10406000C05D179990476D1C7F1C4745F6DBE00348
:104070000CD55B462146179A059800F09FF9054438
:1040800004E030205A46179990476D1C0099481E4D
:1040900000900029F5DC08E0029802995A46007861
:1040A000491C0291179990476D1CBAF10001AAF1C1
:1040B000010AF1DC65E100000928010030313233EA
:1040C0003435363738396162636465660000000054
:1040D000303132333435363738394142434445463E
:1040E0000000000000F058F90544761C30780028E4
:1040F0007FF4ECAD19B02846BDE8F08F620700D41C
:10410000062709F1070222F0070CFCE80223E1462A
:1041100003F000485FEA080C02D00FF2702C0DE0AB
:104120005FEA045C02D50FF2682C07E05FEAC47C0A
:1041300002D00FF2602C01E0AFF2700C4FF0FF38AC
:1041400023F00043CDF850C065280CD006DC45288C
:1041500009D046281DD047283DD13DE0662818D01B
:1041600067287ED138E00021112F01DB112000E00B
:10417000781CCDE9000106A90EA8FFF7EDFCDDE9EA
:104180000F010E9A03910021009207F1010A049198
:104190004DE04FF000400097CDE9011006A90EA8B0
:1041A000FFF7DAFCDDE90F0203920E9B1199002262
:1041B000DDF80CA00093049211B9791C00EB010A00
:1041C000B7EB0A0004D4C0F1FF3007F1010A0490F4
:1041D000AAEB0700019044E0012F00DA012700213B
:1041E000112F01DD112000E03846CDE9000106A9BC
:1041F0000EA8FFF7B1FCDDE90F010E9A0391002133
:1042000004910092BA4621070CD40399514500DA73
:104210008A46BAF1010F05DD009AAAF10101515C4D
:10422000302908D0B84202DA10F1040F06DA012171
:10423000CDE9011015E0AAF10101E9E7002805DC4C
:10424000049901440491AAEB000102E0411C51458C
:1042500000DD8A460499401A401C01904FF000404E
:104260000290200704D40198504501DBCDF804806A
:1042700000208DF84F0002980DF14F07B0F1004F6C
:1042800025D02B200E9002984FF0020800280CDA5F
:10429000404202902D200E9007E00A210298FCF780
:1042A000D9F83031029007F8011DB8F10001A8F1EA
:1042B0000108F2DC02980028EFD1791E0E980870F0
:1042C000307800F0200040F0450007F8020D12A8F9
:1042D000C01B00F107081498007800B1012000EB22
:1042E0000A01019801EBE07105984144401A401E13
:1042F0000590E00306D45B462146179A059800F026
:104300005DF805441498007818B15A4617999047FB
:104310006D1CE00324D55B462146179A059800F0F2
:104320004DF805441CE00498002807DBDDE9030193
:10433000884203DD0098405C179901E0179930200E
:104340005A469047049805F10105401C04900198D5
:10435000401E019004D12E205A46179990476D1C9B
:10436000BAF10001AAF1010ADDDC05E017F8010B42
:104370005A46179990476D1CB8F10001A8F1010841
:10438000F4DC5B462146179A0598ABE62D00000049
:104390002B000000200000002DE9F041044600251C
:1043A0001E461746880404D405E039462020B0474D
:1043B0006D1C641EF9D52846BDE8F0812DE9F04159
:1043C000044600251E469046C80301D5302700E06C
:1043D0002027880404D505E041463846B0476D1CC7
:1043E000641EF9D52846BDE8F0810A68531C0B60AD
:1043F000107070472DE9FF47FDF7A6FCFEF792FB12
:1044000003F078FF01F0C6FB642001F0EBFDFE48ED
:104410000078012804D101F095FE642001F0E2FD4E
:10442000FA480088012813D10020F8490880FEF7D7
:1044300053FC03F05FFF03F08DFD03F039FC01F046
:104440000DFEF349F34803F0B9FE0120F24908607C
:10445000F248406C46F2A811884202D30020EF498E
:104460004864EE48806BEE49884260D30020EB49F7
:104470008863EC480068401CEA4908600222EA4967
:10448000042002F077FD642001F0ACFDE7480078DD
:10449000D02819D10C20E04908600020E4490880A8
:1044A000E44908704FF40061E048FBF776FE012014
:1044B000E1490870E1A0FFF717FB0020E24908700E
:1044C0000120E249087032E0D9480088401CD849F0
:1044D0000880D8480078401CD64908700E20CE4984
:1044E0000860D3480188DAA0FFF7FEFAD0480088B8
:1044F00002281CDDDCA0FFF7F7FA0020CC49088079
:104500000120C24908800020D04908700222DC49FD
:10451000042002F02FFD0020C74908704FF400610D
:10452000C248FBF73AFE8021D648FBF736FEBB486F
:10453000416DD548007840F271225043B1EB001F25
:1045400015D30020B5494865D0480068401CCF49C4
:104550000860B9480078012809D1B54800880128C9
:1045600005DACBA0FFF7C0FA0320AB490860AB48DF
:104570000068F8B10020A9490860C84800780128FF
:1045800005D10220C6490870AF49087012E0C5483D
:104590000078012807D0C4480078012803D0C34818
:1045A0000078012803D10120BD49087002E00020F5
:1045B000BB4908709948C06AB0F57A6F61D3002092
:1045C0009649C862BA480078401CB9490870B44896
:1045D000007820B1012821D0022851D13DE0B54812
:1045E000007868B94FF40071B348FDF728FB4FF429
:1045F0008071B148FDF721FB0120AE4908700CE045
:104600004FF40071AC48FDF71AFB4FF48071AA48D3
:10461000FDF715FB0020A749087031E0A548007898
:1046200001280CD10102A448FDF709FB4FF40071E9
:10463000A148FDF702FB00209E4908700CE04FF4F2
:1046400080719D48FDF7FBFA4FF400719A48FDF721
:10465000F6FA01209749087012E04FF4007196486D
:10466000FDF7EDFA4FF480719348FDF7E6FA20214B
:104670009148FDF7E4FA10218F48FDF7DEFA00BFFC
:1046800000BF6648406A44F62061884233D3002068
:10469000624948628948FCF7E5FE88494878FBF79B
:1046A00053FE8749086085490878FBF74DFE854928
:1046B0000860854982480068FBF7C2FE11D3824931
:1046C00080480068FBF7BCFE0BD300217C480068E3
:1046D000FBF7ACFE05D000217A480068FBF7A6FE88
:1046E00006D17AA0FFF700FA01206E49087002E0B7
:1046F00000206C49087049488069B0F5FA6F5ED3B4
:104700000020464988615048007820B101281DD01A
:10471000022853D136E07448007858B92021664801
:10472000FDF78DFA10216448FDF787FA01206E49E4
:1047300008700AE020216048FDF781FA10215E48E8
:10474000FDF77DFA00206849087037E06648007878
:1047500001280BD110215848FDF771FA2021564845
:10476000FDF76BFA0020604908700AE010215248FA
:10477000FDF765FA20215048FDF761FA01205A49FA
:1047800008701BE04FF400714B48FDF758FA4FF4E6
:1047900080714948FDF751FA20214748FDF74FFA4B
:1047A00010214548FDF749FA00214FF08040FEF7FF
:1047B00090FD00210120FEF7E5F900BF00BF4B4846
:1047C000007802281ED14A480078D8B91348806C76
:1047D00040F6B831884215D3002010498864434818
:1047E000007802280ED101034248FDF726FA4FF463
:1047F00080414048FDF723FA3D480078401C3C4981
:10480000087079E07BE000002C0100209A00002075
:104810003D01002035010020CC0200203C03002097
:10482000A0860100D4000020DC020020240A002021
:104830009C0000209E00002054000020CAD5B5BD79
:10484000D0C4CCF80D0A0000A1000020CA0000204E
:10485000CEB4CAD5B5BDD0C4CCF8B4CECAFDA3BAC7
:104860002025640D0A000000D0C4CCF8B3ACCAB156
:10487000A3ACD6D8D0C2C1ACBDD3A3A10D0A000051
:104880005D00002054090020CE000020D800002048
:10489000B7A2B2BCCFFBCFA20D0A00009700002048
:1048A000A000002095000020960000209800002025
:1048B0009F000020A2000020000C01406D0000209D
:1048C000A8000020AC000020000048425468652089
:1048D00044485431312069732064656D61676564B3
:1048E00020210D0A00000000A3000020DC000020B1
:1048F000DE00002000100140FAA0FFF7F5F8FE48A6
:104900000078F0B9FD480078D8B1FD48806C40F6D9
:10491000B831884215D30020F9498864F6480078F8
:1049200078B94FF40051F748FDF789F94FF4804109
:10493000F448FDF782F90020F0490870F2A0FFF773
:10494000D3F8F6480078012815D1F548007890B1E1
:10495000EB48C06C40F6C41188420CD30020E849F3
:10496000C864EE480078012805D10020EC490870A1
:10497000ECA0FFF7B9F8E9480078B0B9E84800784A
:1049800098B9DF48C06C40F6C41188420DD30020AE
:10499000DB49C864E148007838B9E1480078401C38
:1049A000DF490870E4A0FFF79FF8D548C06941F2DD
:1049B0008831884252D30020D149C861E348FCF7CE
:1049C00073F8E2480068E2490860E0484068E1495D
:1049D0000860DE488068E049086008460068FBF728
:1049E000F6FC04460D46DB480068FBF7F0FC064683
:1049F0000F46D7480068FBF7EAFC804642460B4664
:104A0000D6A0CDE90067CDE90245FFF76DF800219A
:104A1000CF480068FBF70AFD1BD10021CD48006894
:104A2000FBF704FD15D10021CB480068FBF7FEFC25
:104A30000FD1D0480078401CCE4908700846007855
:104A400005280BDD0120CC490870CCA0FFF74CF8FD
:104A500004E00020C7490870C7490870CF480078B3
:104A6000052801DDFEF770FACD484078882845D149
:104A7000CB48C078992841D1C9480079C9490978FB
:104A800088423FD1C6484079C6494978884239D1E1
:104A9000C3488079C3498978884233D1C048C079F6
:104AA000C049C97888422DD1BD48007A01280DD16E
:104AB000BDA0FFF719F801214FF4887001F042F80A
:104AC0004FF47A7001F08EFAFEF73EFAB448007A9D
:104AD00002280ED1B9480178B9A0FFF705F8B0480F
:104AE000407AB6490870084601784FF4007001F02A
:104AF00029F84021AA48FBF750FB03E04021A848D1
:104B0000FBF74BFBB9480078012872D101F0AAFDF0
:104B100001F0CCFDB648007801280CD1B5480078EA
:104B2000012808D10421B448FDF787F80821B348CB
:104B3000FDF785F807E00421AF48FDF780F808216C
:104B4000AE48FDF77CF8AE480078012806D0AD48A5
:104B50000078012802D0AC480078C0BBA448007897
:104B6000012817D1A3480078A0B9A8A0FEF7BCFF80
:104B70000320A34908700020A24908700120A2491F
:104B800008700020A7490870A74908700120A749AC
:104B900008708FE1964800780028FAD1954800788F
:104BA0000128F6D1A2A0FEF79FFF002094490870CB
:104BB0000320944908700120934908700020994906
:104BC00008709949087001209849087072E1FFE760
:104BD00001F048FD86480078012843D189480078D3
:104BE000032807D1042090490870002085490870E7
:104BF0003EE066E28C480078052807D080480078BF
:104C0000032803D004208749087031E086480078E3
:104C100005282DD18C48007818BB8C480068401CB2
:104C20008A4908600846006818B908460068401CB0
:104C3000086087A0FEF758FF8448016889A0FEF746
:104C400053FF0020794908707F480078401C7E4956
:104C50000870002074490870724908700120684982
:104C6000087005E00120714908700020764908703D
:104C700001F01CFD5F480078012832D160480078BF
:104C8000032806D105206849087000205C49087097
:104C900010E164480078042807D05A4800780328B7
:104CA00003D005206049087004E15E4800780428BC
:104CB00016D17348007898B964480068401E63496B
:104CC00008600846006818B908460068401E086079
:104CD0000020564908705EA0FEF706FF5B48D1E051
:104CE000E8E0E1E061636320697320636C6F7365E2
:104CF0006420210D0A000000DC000020DE000020FE
:104D00003C03002000100140616363206973206F41
:104D100070656E656420210D0A000000DD00002032
:104D2000DF00002062617474657279206973206805
:104D300069676820210D0A006261747465727920C8
:104D40006973206C6F7720210D0A00008404002015
:104D5000880000208C0000209000002078203D205A
:104D600025662C79203D2025662C7A203D2025665D
:104D70000D0A000094000020980000204163636544
:104D80006C65726174696F6E2069732064656D6112
:104D90006765642021200D0A000000009E000020AD
:104DA000D409002034000020B6A9D4C4CAD5B5BDAA
:104DB000D6D8C6F4D6B8C1EE210D0A00CE00002028
:104DC000B6A9D4C4CAD5B5BDB7A2B2BCBCE4B8F4C8
:104DD000D6B8C1EE21BCE4B8F4B1E4B8FCCEAAA3C5
:104DE000BA2564C3EB20A3A10D0A0000CA0000206D
:104DF0002E0000202F00002000140140000C014074
:104E0000CC000020CD000020CB000020CFD6D4DA8B
:104E1000B5C4C2A5CCDDCAC7C9CFD0D020A3A10DCF
:104E20000A000000C6000020C5000020C9000020C4
:104E3000CFD6D4DAB5C4C2A5CCDDCAC7CFC2D0D0D4
:104E400020A3A10D0A000000BF0000207000002078
:104E5000B5E7CCDDD2D1BEADBECDCEBB20A3A10D7A
:104E60000A000000CFD6D4DAB5C4C2A5B2E3CAC7DF
:104E7000202025642020B2E320A3A10D0A00000019
:104E8000C00000200168FAA0FEF72EFEFE48007860
:104E9000401CFD4908700020FC490870FC4908705E
:104EA0000120FC49087005E00120FB490870002042
:104EB000F549087001F01EFCF8480078012860D11F
:104EC000F7480078E8BBF7A0FEF70EFEF44800783C
:104ED000401CF3490870F7480078401CF5490870F9
:104EE00008460078FF2831D1F3480078401CF24989
:104EF000087008460078FF281DD100200870EF4890
:104F00000078401CED49087008460078FF280CD155
:104F100000200870EA480078401CE94908700846FB
:104F200001784FF48C7000F00DFEE44801784FF4E6
:104F30008B7000F007FE0020DE490870DE48017823
:104F400000E009E04FF48A7000F0FCFDD9480178D8
:104F50004FF4897000F0F6FD0020DA490870DA4954
:104F60000870DA4908654FF40041D948FCF765FE3E
:104F70004FF48061D748FCF762FE0020D6490870E4
:104F800022E0D248006DD54988420DD3CD48007843
:104F900050B90120D2490870D2A0FEF7A5FD00202B
:104FA000CA490865C74908700120C7490870002030
:104FB000BB4908704FF40041C548FCF740FE4FF470
:104FC0008061C448FCF739FE01F0B8FBCD48007899
:104FD000012820D1CC480078B8B90120CB4908601D
:104FE00008460168A2A0FEF77FFD0020C8490870AE
:104FF000A8490870A5490870A5490870C5490870F6
:10500000C1480078401CC04908704FF40061B148A5
:10501000FCF713FE07E00020BB4908704FF4006165
:10502000AC48FCF70CFE01F0ABFBBB480078012854
:1050300018D1BA480078E8B9B9A0FEF755FDBCA070
:10504000FEF752FDB5480078401CB44908704FF493
:1050500000619F48FCF7F1FD4FF480519C48FCF73C
:10506000EEFD07E04FF400619948FCF7E8FD0020F1
:10507000AA49087001F0A6FBB3480078012818D1AE
:10508000B2480078E8B9A6A0FEF72EFDB0A0FEF762
:105090002BFDAE480078401CAC4908704FF400610D
:1050A0008B48FCF7CCFD4FF480518948FCF7C5FDD7
:1050B00007E04FF480518648FCF7C1FD0020A3496A
:1050C0000870A948007801287ED10020A74908600F
:1050D000A7490860A7490870A3490870A648406816
:1050E000012872D1A448C06801281FD1A3490870C3
:1050F0002420A349087001204870062088700020F1
:1051000000F0D0FC9E49C870022000F0CBFC9C4906
:105110000871042000F0C6FC99494871062000F08F
:10512000C1FC974988710020C87108729248C06814
:10513000022820D10120914908702420904908704C
:105140000220487006208870102000F0ABFC8C49CB
:10515000C870122000F0A6FC89490871142000F0E4
:10516000A1FC87494871162000F09CFC8449887195
:105170000020C87108728048C06803282AD1012025
:105180007E49087024207E4908700320487006205C
:105190008870202000F086FC7949C870222000F039
:1051A00081FC77490871242000F07CFC7449487127
:1051B000262000F077FC72498871282000F072FCEC
:1051C0006F49C8712A2001E0F8E35DE200F06AFC53
:1051D0006B4908726848C068042820D101206749DB
:1051E00008702420664908700420487006208870E2
:1051F000302000F057FC6249C870322000F052FCA9
:105200005F490871342000F04DFC5D49487136203B
:1052100000F048FC5A4988710020C871087256484D
:10522000C068052822D1012054490870242054491F
:105230000870052048700620887040F2052000F0B4
:1052400031FC4F49C87040F2072000F02BFC4C495C
:10525000087140F2092000F025FC4949487140F2EC
:10526000112000F01FFC464988718BE08DE00000A2
:10527000CFD6D4DAB5C4C2A5B2E3CAC7202025640C
:105280002020B2E30D0A0000C0000020C60000206C
:10529000C5000020CD000020C90000203000002003
:1052A000C1000020C3C5D2D1B9D8B5BDCEBB200D39
:1052B0000A0000005600002057000020580000207F
:1052C00059000020C8000020C70000203C03002037
:1052D000000801400010014074000020C0C62D00ED
:1052E000F4000020C3C5B3A4CAB1BCE4CEB4B9D89D
:1052F000A3ACB7A2CBCDB9CAD5CFB1A8CEC420211B
:10530000200D0A0031000020C200002070000020A3
:10531000CC000020CB00002032000020C300002081
:10532000D1CFD6D8B9CAD5CF20A3A10D0A0000008D
:10533000CFD6D4DAB5E7CCDDD2D1B5BDB6A5B2BFF4
:105340002021200D0A00000033000020C4000020AE
:10535000CFD6D4DAB5E7CCDDD2D1B5BDB5D7B2BFA3
:105360002021200D0A0000001E0000201400002053
:1053700018000020CA000020FC0200206F0000205E
:10538000A00400200020C8710872FE48C0680628EA
:105390001FD10120FC4908702420FC490870062018
:1053A00048708870502000F07DFBF849C87052208A
:1053B00000F078FBF5490871542000F073FBF349C5
:1053C0004871562000F06EFBF04988710020C871CA
:1053D0000872EC48C068072818D10120EA49087013
:1053E0002420EA4908700720487006208870602051
:1053F00000F058FBE549C870622000F053FBE34918
:105400000871002048718871C8710872DD48C06851
:10541000082847D1DE48FBF747FBDD480068DD4937
:105420000860DB484068DC490860D9488068DB498F
:105430000860DB48FCF716F8D9494878FAF784FF8A
:10544000D8490860D6490878FAF77EFFD64908603F
:105450000120CD4908702420CC49087008204870EC
:1054600006208870CF480068FAF784FFC749C870E3
:10547000CD480068FAF77EFFC4490871C548006846
:10548000FAF791FFC1494871C3480068FAF78BFFEA
:10549000BE498871C1480068FAF785FFBB49C871E9
:1054A00000200872B748C068092814D10120B64905
:1054B00008702420B54908700920487006208870BB
:1054C0000020C870087148718871C87108724FF463
:1054D000036100F0E3FFAB48C068102829D14FF406
:1054E0007A7000F07FFD4FF47A7000F07BFD4FF48E
:1054F0007A7000F077FD4FF47A7000F073FD4FF48E
:105500007A7000F06FFD4FF47A7000F06BFD4FF48D
:105510007A7000F067FD4FF47A7000F063FD4FF48D
:105520007A7000F05FFD4FF47A7000F05BFDFDF7DC
:105530000BFD9448C068132824D1012092490870BB
:1055400024209249087013204870062088704FF478
:105550008C7000F0A7FA8D49C8704FF48B7000F082
:10556000A1FA8A4908714FF48A7000F09BFA8749C2
:1055700048714FF4897000F095FA844988710020D1
:10558000C87108727F48C06812287DD124207F49E5
:1055900008701220487020208870002000F082FAE5
:1055A0007A49C870022000F07DFA78490871042019
:1055B00000F078FA75494871062000F073FA7349D3
:1055C0008871102000F06EFA7049C871122000F046
:1055D00069FA6E490872142000F064FA6B49487247
:1055E000162000F05FFA69498872202000F05AFA0C
:1055F0006649C872222000F055FA644908732420D5
:1056000000F050FA61494873262000F04BFA5F49D8
:105610008873282000F046FA5C49C8732A2000F0FD
:1056200041FA5A490874302000F03CFA574948744E
:10563000322000F037FA55498874342000F032FAED
:105640005249C874362000F02DFA504908754020A0
:1056500000F028FA4D494875422000F023FA4B49E2
:105660008875442000F01EFA4849C875462000F0AD
:1056700019FA46490876502000F014FA4349487652
:10568000522000F00FFA00E073E040498876542081
:1056900000F008FA3D49C876562000F003FA3B496D
:1056A0000877602000F0FEF938494877622000F062
:1056B000F9F9364988773648FBF7F6F93448006837
:1056C000344908603248406833490860304880688F
:1056D000324908603248FBF7C5FE31494878FAF78D
:1056E00033FE304908602E490878FAF72DFE2E491E
:1056F00008602C480068FAF73DFE2449C8772A481C
:105700000068FAF737FE214981F820002148006837
:10571000FAF749FE1D4981F821001F480068FAF791
:1057200042FE1A4981F822001C480068FAF73BFE45
:10573000164981F8230000201C49087000BF07E0CB
:105740001249095C194A12781144184A1170401C18
:105750002428F5DB154800780C4981F82400002442
:1057600005E00A48015D1248FEF751F9641C252C3A
:10577000F7DB0448406802287ED10248C06801284F
:1057800037D117E0FC0200206F000020A0040020A9
:1057900084040020880000208C000020900000205D
:1057A0006D000020A8000020AC000020A400002014
:1057B00000440040A3490870A3480069C1B200201A
:1057C00000F0C0F9A0484069C1B2022000F0BAF967
:1057D0009D488069C1B2042000F0B4F99A48C069BC
:1057E000C1B2062000F0AEF901214FF4837000F041
:1057F000A9F99548C06802281ED101209149087076
:1058000091480069C1B2102000F09CF98E484069AF
:10581000C1B2122000F096F98B488069C1B2142001
:1058200000F090F98848C069C1B2162000F08AF9EA
:105830000121080200F086F98348C06803281FD1BF
:1058400001208049087080480069C1B2202000F022
:1058500079F97D484069C1B2222000F073F97A4895
:105860008069C1B2242000F06DF97748C069C1B2E7
:10587000262000F067F900E085E0012073490870F8
:105880007148C06804281AD101206E4908706E481A
:105890000069C1B2282000F055F96B484069C1B2D7
:1058A0002A2000F04FF969480078012807D100202C
:1058B0006649087001214FF4817000F043F9624895
:1058C000C068082819D101205E4908705E48006947
:1058D000C1B2602000F036F95B484069C1B2622075
:1058E00000F030F9584840695749096940EA0120F9
:1058F000574908800120574908705348C068092853
:105900001ED101204F4908704F480069C1B24FF4C1
:10591000897000F017F94C484069C1B24FF48A70A1
:1059200000F010F948488069C1B24FF48B7000F064
:1059300009F94548C069C1B24FF48C7000F002F912
:105940004148C06810281ED101203E4908703E48D9
:105950000069C1B240F2052000F0F4F83A4840690D
:10596000C1B240F2072000F0EDF837488069C1B2BB
:1059700040F2092000F0E6F83348C069C1B240F2B5
:10598000112000F0DFF834480078012822D10020EF
:10599000314908703149087000BF07E03049095C9F
:1059A0002E4A127811442D4A1170401C0928F5DB4B
:1059B0002A4800782A494872002409E040E0284833
:1059C000015D2848FEF723F8642000F029FB641CE1
:1059D0000A2CF4DB1B480078012831D100201F4934
:1059E00008701849087024201D49087016488068FE
:1059F00010304870062088700020C8700871487107
:105A00008871C871087200BF07E01549095C134A24
:105A100012781144114A1170401C0928F5DB0F4817
:105A200000780F494872002408E00D48015D0D48D8
:105A3000FDF7EDFF642000F0F3FA641C0A2CF4DBA0
:105A4000BDE8FF8775000020FC02002081000020D7
:105A500022010020850000206F000020A40000200B
:105A6000A00400200044004008B58020ADF80000EC
:105A700003208DF8020014208DF8030069460848C1
:105A8000FBF7FEFF4020ADF8000003208DF8020078
:105A900014208DF8030069460148FBF7F1FF08BDAB
:105AA000000C014070B50446E6B272B600F01EF874
:105AB000FE2101EAE41141F0A00002F0CBFC00F06D
:105AC000DDF9304602F0C6FC00F0D8F900F00EF81F
:105AD000A12002F0BFFC00F0D1F900F0EFFF054675
